:100000009BC00000C9C00000C7C00000C5C0000000
:10001000C3C00000C1C00000BFC00000BDC00000E0
:10002000BBC00000B9C00000B7C00000B5C00000F0
:10003000B3C00000B1C00000AFC00000ADC0000000
:10004000ABC00000A9C00000A7C00000A5C0000010
:10005000A3C00000A1C000009FC00000FDC40000BC
:100060009BC0000070C3000045C3000095C00000A5
:1000700093C0000091C000008FC000008DC0000040
:100080008BC0000089C0000087C0000085C0000050
:1000900083C0000081C000007FC000007DC0000060
:1000A0007BC0000079C0000077C0000075C0000070
:1000B00073C0000071C000006FC000006DC0000080
:1000C0006BC0000069C0000067C00000DDC2000016
:1000D000B2C2000061C000005FC000005DC000004F
:1000E0005BC00000AA07BB07BE07C507CB07F60722
:1000F000FD07090815082008200820082008200806
:1001000020082008200820082008200820082008AF
:10011000200820082008200820082008200820089F
:1001200020082008AA07B607BB07BE07C507CB07EC
:10013000D207DE07EA07500A11241FBECFEFD1E233
:10014000DEBFCDBF00E00CBF13E0A0E0B2E0E4E210
:10015000FCE100E00BBF02C007900D92AC30B1078C
:10016000D9F724E0ACE0B3E001C01D92AC3FB20788
:10017000E1F710E0CCE9D0E000E006C021970109EA
:10018000802FFE010E94C60DCB39D10780E0080701
:10019000A9F7ACD40C94100E33CFCF92DF92EF922C
:1001A000FF920F931F93CF93DF936C017A018B0122
:1001B000C0E0D0E0CE15DF0581F0D8016D918D0152
:1001C000D601ED91FC910190F081E02DC6011995C9
:1001D000892B11F02196EECF7E01C701DF91CF91DF
:1001E0001F910F91FF90EF90DF90CF9008950895A9
:1001F00080E090E00895FC01538D448D252F30E080
:10020000842F90E0821B930B541710F0CF96089523
:1002100001970895FC01918D828D981761F0828D70
:10022000DF01A80FB11D5D968C91928D9F5F9F732A
:10023000928F90E008958FEF9FEF0895FC01918DCC
:10024000828D981731F0828DE80FF11D858D90E039
:1002500008958FEF9FEF0895FC01918D228D892FD6
:1002600090E0805C9F4F821B91098F7399270895BE
:100270008CE093E0F1DF21E0892B09F420E0822F6C
:10028000089589EA93E0E8DF21E0892B09F420E072
:10029000822F0895FC01848DDF01A80FB11DA35AA0
:1002A000BF4F2C91848D90E001968F739927848F96
:1002B000A689B7892C93A089B1898C9183708064B9
:1002C0008C93938D848D981306C00288F389E02D5A
:1002D00080818F7D80830895EF92FF920F931F930B
:1002E000CF93DF93EC0181E0888F9B8D8C8D9813E9
:1002F00005C0E889F989808185FD25C0F62E0B8D22
:1003000010E00F5F1F4F0F731127E02E8C8DE81246
:100310000BC00FB607FCFACFE889F989808185FF09
:10032000F5CFCE01B7DFF2CF8B8DFE01E80FF11DC7
:10033000E35AFF4FF0829FB7F8940B8FEA89FB894D
:10034000808180620AC09FB7F894EE89FF8960833C
:10035000E889F98980818370806480839FBF81E010
:1003600090E0DF91CF911F910F91FF90EF90089552
:10037000CF93DF93EC01888D8823C1F0EA89FB8954
:10038000808185FD05C0A889B9898C9186FD0EC044
:100390000FB607FCF5CF808185FFF2CFA889B98918
:1003A0008C9185FFEDCFCE0175DFE8CFDF91CF9146
:1003B000089580E090E0892B19F063DF811120C05F
:1003C00080E090E0892B41F080E090E0892B21F0E3
:1003D0000E940000811117C080E090E0892B19F085
:1003E00047DF811113C080E090E0892BA1F080E00D
:1003F00090E0892B81F00E94000081110AC00895CD
:100400000E940000DDCF0E940000E6CF0E940000A5
:10041000EACF0C9400000895CF93DF93EC018A8516
:100420009B85AC85BD858E839F83A887B98708D3BC
:100430006A837B838C839D8381E089838883DF91BA
:10044000CF910895CF93DF93EC018E819F81A88592
:10045000B9858A839B83AC83BD83F2D26A877B870D
:100460008C879D8781E089838883DF91CF91089570
:100470002F923F924F925F926F927F928F929F92B4
:10048000AF92BF92CF92DF92EF92FF920F931F93A2
:10049000CF93DF93D82FC92F8B010E94400B24E606
:1004A00030E040E050E00E94A40D49015A019B0158
:1004B000AC0160E876E988E990E00E94950D6B0157
:1004C0007C01F80191828082ED2FFC2F2191822FF7
:1004D000022E000C990BC0970A97C0F32E3239F503
:1004E0001F0180E8882E86E9982E88E9A82EB12C75
:1004F0009AE0492E512C612C712CF101C1911F0100
:100500000C2E000CDD0BE097CA30D10580F4C5013C
:10051000B401A30192010E94A40D49015A01DE0118
:100520000E94D80DC60ED71EE81EF91EE6CFA5E024
:10053000B0E0A70196010E94CE0D6F5F7F4F8F4FF5
:100540009F4F23E030E040E050E00E94A40DF8010E
:1005500022833383448355831682DF91CF911F9189
:100560000F91FF90EF90DF90CF90BF90AF909F9052
:100570008F907F906F905F904F903F902F90089555
:10058000FF920F931F93CF93DF93EC01F8802DE23E
:10059000F21201C02196CE010E94400B9B01AC01DA
:1005A000A4E6B0E00E94CE0DFE014991242F042E56
:1005B000000C330B205331092A303105A8F34E3299
:1005C00041F52181022E000C330B205331092A30D2
:1005D0003105F8F44AE0429F8001439F100D112439
:1005E000012E000C220B330B600F711F821F931F13
:1005F0000281002E000C110B005311090A30110565
:1006000040F4012E000C220B330B600F711F821F70
:10061000931F2DE2F21207C0909580957095619519
:100620007F4F8F4F9F4FDF91CF911F910F91FF9081
:1006300008950E94ED0D1F920F920FB60F92112494
:100640000BB60F922F933F934F935F936F937F93CC
:100650008F939F93AF93BF93EF93FF938CE093E0BF
:1006600019DEFF91EF91BF91AF919F918F917F9193
:100670006F915F914F913F912F910F900BBE0F9013
:100680000FBE0F901F9018951F920F920FB60F92EA
:1006900011240BB60F922F938F939F93EF93FF9399
:1006A000E0911C03F0911D038081E0912203F09101
:1006B000230382FD12C09081809125038F5F8F7389
:1006C00020912603821751F0E0912503F0E0E45FCA
:1006D000FC4F958F8093250301C08081FF91EF919E
:1006E0009F918F912F910F900BBE0F900FBE0F9087
:1006F0001F9018951F920F920FB60F9211240BB6F0
:100700000F922F933F934F935F936F937F938F93AA
:100710009F93AF93BF93EF93FF9389EA93E0BADD82
:10072000FF91EF91BF91AF919F918F917F916F91C9
:100730005F914F913F912F910F900BBE0F900FBE85
:100740000F901F9018951F920F920FB60F921124C1
:100750000BB60F922F938F939F93EF93FF93E0919C
:10076000B903F091BA038081E091BF03F091C00317
:1007700082FD12C090818091C2038F5F8F732091A0
:10078000C303821751F0E091C203F0E0E755FC4F3C
:10079000958F8093C20301C08081FF91EF919F915B
:1007A0008F912F910F900BBE0F900FBE0F901F9047
:1007B0001895FC01A089B18982E08C93A485B58548
:1007C0001C92A685B7858FEC8C93108EA489B58971
:1007D00086E08C93A289B3898C9180618C93A289E5
:1007E000B3898C9188608C93A289B3898C9180683D
:1007F0008C930288F389E02D80818F7D808308951A
:10080000009761F0FC0101900020E9F73197AF01FA
:10081000481B590BBC0189EA93E0BFCC80E090E013
:100820000895CF93DF93ECDFEC0188E392E0E8DFFB
:100830008C0F9D1FDF91CF9108958F929F92AF9261
:10084000BF920F931F93CF93DF93CDB7DEB7A197DE
:100850000FB6F894DEBF0FBECDBF19A2423008F428
:100860004AE08E010F5D1F4F842E912CA12CB12CDC
:10087000A50194010E94A40DE62FB901CA010150FF
:100880001109EA3014F4E05D01C0E95CD801EC9391
:10089000232B242B252B61F7C801B2DFA1960FB6BD
:1008A000F894DEBF0FBECDBFDF91CF911F910F91A6
:1008B000BF90AF909F908F900895A2CF8F929F92FC
:1008C000AF92BF92CF92DF92EF92FF920F931F935E
:1008D000CF93DF936B017C01142F9B01AC010E942D
:1008E000910D882319F080E093E026C0460157015E
:1008F000E894B7F82FEF3FEF4FE75FE7C501B4018A
:100900000E94910D81110CC02FEF3FEF4FE75FE781
:10091000C501B40155D718161CF484E093E00CC04F
:100920002FEF3FEF4FE75FE4C701B6010E942A0DAA
:1009300018167CF488E093E0DF91CF911F910F911E
:10094000FF90EF90DF90CF90BF90AF909F908F90EF
:1009500057CF2FEF3FEF4FE75FECC701B60130D71E
:1009600087FDE8CF20E030E0A901C701B60128D714
:1009700087FF0AC06DE289EA93E0AEDCEC01F7FA8A
:10098000F094F7F8F09402C0C0E0D0E000E060E03E
:1009900070E080E09FE3101739F020E030E040E2A3
:1009A00051E412D70F5FF7CFA7019601A5D66B01CF
:1009B0007C0172D74B015C014AE03FDFC80FD91FB1
:1009C000112381F1C501B40193D79B01AC01C7018B
:1009D000B60191D66B017C016EE289EA93E07CDC82
:1009E000C80FD91F20E030E040E251E4C701B60152
:1009F0000E942E0D4B015C014FD76B01E12CF12CB5
:100A00004AE0C701B60119DFC80FD91FC701B601F7
:100A10006FD79B01AC01C501B4016DD66B017C01A0
:100A2000115001F7CE01DF91CF911F910F91FF90EF
:100A3000EF90DF90CF90BF90AF909F908F900895F0
:100A40002FB7F8946091F8047091F9048091FA043A
:100A50009091FB042FBF08951F920F920FB60F9233
:100A600011242F933F938F939F93AF93BF938091C4
:100A7000F8049091F904A091FA04B091FB0430912C
:100A8000F70423E0230F2D3720F40196A11DB11D9B
:100A900005C026E8230F0296A11DB11D2093F7047F
:100AA0008093F8049093F904A093FA04B093FB04A4
:100AB0008091F3049091F404A091F504B091F604B0
:100AC0000196A11DB11D8093F3049093F404A093AB
:100AD000F504B093F604BF91AF919F918F913F9130
:100AE0002F910F900FBE0F901F901895789484B59A
:100AF000826084BD84B5816084BD85B5826085BD1A
:100B000085B5816085BD80916E00816080936E00A7
:100B10001092810080918100826080938100809199
:100B2000810081608093810080918000816080934A
:100B300080008091B10084608093B1008091B0000A
:100B400081608093B00080919100826080939100D9
:100B500080919100816080939100809190008160EC
:100B6000809390008091A10082608093A100809189
:100B7000A10081608093A1008091A000816080939A
:100B8000A000809121018260809321018091210148
:100B900081608093210180912001816080932001F8
:100BA00080917A00846080937A0080917A008260DC
:100BB00080937A0080917A00816080937A0080919E
:100BC0007A00806880937A001092C10089EA93E0ED
:100BD000F0DD8CE093E0EDDD2224239480E1882E8B
:100BE00087E2982EA12CB12C94E6C92ED12CE12CB1
:100BF000F12C22E0322ED1E08CE093E02DDB1816B0
:100C000019060CF04AC48CE093E004DBC82F8091F5
:100C1000E3049091E404A091E504B091E604019608
:100C2000A11DB11D8093E3049093E404A093E50417
:100C3000B093E604C43209F446C2E091DD04C53243
:100C400034F4CA3071F0CD3009F04AC20AC0CA3259
:100C500041F0CC3209F044C28091CA048C278093C1
:100C6000CA04EF3008F01BC2F0E0E453FB4F1082DF
:100C70008091CB04882309F410C12091CC043FEB70
:100C8000320F822F022E000C990B363010F4C797CA
:100C900007C02156263018F48755910901C0C09726
:100CA000282F2295207F3091CD044FEB430F832FC7
:100CB000032E000C990B463010F4C79707C031562D
:100CC000363018F48755910901C0C097820F909172
:100CD000CA048913CEC08091EF049091F004A091D2
:100CE000F104B091F2040196A11DB11D8093EF04AF
:100CF0009093F004A093F104B093F2048091DE0489
:100D0000882399F08091E7049091E804A091E90488
:100D1000B091EA040196A11DB11D8093E704909360
:100D2000E804A093E904B093EA041091DB041123D2
:100D300099F1113009F079C088E694E083DB86E709
:100D400094E080DB8091DE04882309F46EC087E0A4
:100D5000E6E5F4E0A8E4B4E001900D928A95E1F7AD
:100D600087E0EDE5F4E0AFE4B4E001900D928A9500
:100D7000E1F766DE60936404709365048093660413
:100D800090936704109347041093460484E894E01A
:100D900043DB82E994E048C086E794E053DB80912E
:100DA000DE04882311F187E0E6E5F4E0A8E4B4E08E
:100DB00001900D928A95E1F787E0EDE5F4E0AFE46C
:100DC000B4E001900D928A95E1F73ADE60936404F5
:100DD000709365048093660490936704D0934704EE
:100DE000D093460480EA94E017DB8091B804909198
:100DF000B904A091BA04B091BB048093B404909359
:100E0000B504A093B604B093B7041ADE6093B0049F
:100E10007093B1048093B2049093B304D093AF0461
:100E2000D093AE048CEB94E0F7DA0091E1041091DA
:100E3000E2040115110509F434C1E091E104F091D7
:100E4000E20466A177A1F80186A197A1CAD6892BF1
:100E500009F027C1B801C8014096CCD6F1DDF801F0
:100E600060A371A382A393A325A224A202A513A524
:100E7000E0CF8091EB049091EC04A091ED04B0914F
:100E8000EE040196A11DB11D8093EB049093EC0438
:100E9000A093ED04B093EE0402C18091DC048111B3
:100EA00040C062E172E08CEC94E09BD6892B39F073
:100EB00068E172E08CEC94E094D6892B19F4D0931D
:100EC000DB0413C06EE172E08CEC94E08AD6892BCF
:100ED00039F064E272E08CEC94E083D6892B19F44B
:100EE0001092DB0402C03092DB048091DF04909109
:100EF000E0049093E2048093E1040091E1041091F6
:100F0000E2040115110509F4CAC06CEC74E0F801A3
:100F100086A197A166D697FFBCC0F80182A593A5CC
:100F2000E8CFE091DB04E23009F48AC09091CC0470
:100F3000992309F485C020E2E29FF0011124E82BF7
:100F40003197E932F10508F07BC08827EE58FF4F52
:100F50008F4F1CC68CEC94E013DB60937C04709381
:100F60007D0480937E0490937F046AC081E0913475
:100F700009F03FC03FC066E574E009C081E09335E9
:100F800009F080E080935C045BC06DE574E08CEC5C
:100F900094E06EDA55C081E0973509F080E08093E7
:100FA00063044EC08CEC94E0EBDA60938E04709393
:100FB0008F04809390049093910442C08CEC94E051
:100FC000DFDA60939C0470939D0480939E04909359
:100FD0009F0436C08CEC94E053D360936E047093FE
:100FE0006F0480937004909371042AC081E0913360
:100FF0000CF480E08093DE0423C08CEC94E040D3BA
:101000006093B8047093B9048093BA049093BB04BE
:1010100017C08CEC94E0B4DA6093C6047093C704F4
:101020008093C8049093C9040BC08CEC94E0A8DAB8
:101030006093AA047093AB048093AC049093AD04C6
:101040000091E1041091E2040115110541F1E091D4
:10105000E104F091E20466A177A1F80186A197A1CD
:10106000C0D5892BE1F4F80120A531A58091DC04DD
:1010700090E0821793079CF02817390731F440E17C
:1010800050E06CEC74E0C801BCD5F80102A513A5D2
:10109000DBCF892B21F01092E2041092E10480E072
:1010A00001C081E09091DC049F5F9093DC0410927A
:1010B000DD0491E0CA3209F090E09093CB048823DC
:1010C00009F49ACD21C01092DD041092DC04109234
:1010D000CA043092DB041092CB041092DE048CCD53
:1010E000EE3040F481E08E0F8093DD04F0E0E453B5
:1010F000FB4FC0838091CB0481117ECD8091CA04C7
:10110000C827C093CA0478CD80914604882309F487
:1011100055C08AE292E0D1DB1092470460914A0404
:1011200070914B0480914C0490914D04E1D328E2DE
:101130003BE64EE65EE448D32B013C016091480457
:101140007091490480E090E0D3D39B01AC01C301CE
:10115000B201D2D220914E042111905846E0AEDB6C
:1011600088E392E04DDB8BE392E0A7DB109247042B
:1011700060915104709152048091530490915404F1
:10118000B7D328E23BE64EE65EE41ED32B013C01DA
:1011900060914F047091500480E090E0A9D39B01CE
:1011A000AC01C301B201A8D220915504211190587D
:1011B00046E084DB88E392E023DB03C089E492E02D
:1011C00030DB8091A0048823C1F08AE592E075DBD2
:1011D0001092A1046091A6047091A7048091A804C4
:1011E0009091A90487D320E030E048EC52E4ECD29F
:1011F00042E064DB88E692E002C080E792E011DB27
:10120000809184048823E9F081E892E056DB109213
:10121000850460918A0470918B0480918C04909174
:101220008D0468D326E53EE04DEE5FE317D420E061
:1012300030E048EC52E4C8D242E040DB8FE892E074
:1012400002C085E992E0EDDA80917604882309F402
:101250008DC083EA92E031DB1092770460917804CC
:101260007091790480917A0490917B0420E432E4B7
:101270004FE050E069D42A3018F481EB92E01DDB96
:1012800010927704609178047091790480917A04C7
:1012900090917B0420E432E44FE050E055D4CA0141
:1012A000B9017727882799274AE0C7DA83EB92E0CC
:1012B00004DB109277046091780470917904809136
:1012C0007A0490917B04A50194013ED4CA01B9012E
:1012D000A701960139D46A3018F481EB92E0EDDA77
:1012E00010927704609178047091790480917A0467
:1012F00090917B04A501940127D4CA01B901A701EB
:10130000960122D44AE099DA83EB92E0D6DA109281
:101310007704609178047091790480917A049091B7
:101320007B04A701960110D4CA01B901A701960157
:101330000BD46A3018F481EB92E0BFDA1092770494
:10134000609178047091790480917A0490917B0483
:10135000A7019601F9D3CA01B901A7019601F4D3F7
:101360004AE06BDA88E392E04BDA03C085EB92E067
:1013700058DA80916804882309F471C082EC92E005
:101380009CDA1092690460916A0470916B048091F8
:101390006C0490916D04A5019401D6D32A3018F401
:1013A00081EB92E08ADA1092690460916A0470918C
:1013B0006B0480916C0490916D04A5019401C4D3D9
:1013C000CA01B9017727882799274AE036DA80EDE4
:1013D00092E073DA1092690460916A0470916B0470
:1013E00080916C0490916D04A7019601ADD3CA0160
:1013F000B901A7019601A8D36A3018F481EB92E0F5
:101400005CDA1092690460916A0470916B048091B7
:101410006C0490916D04A701960196D3CA01B9019D
:10142000A701960191D34AE008DA80ED92E045DA0F
:101430001092690460916A0470916B0480916C044D
:1014400090916D04A70196017FD36053784F80E09F
:1014500090E04AE0F2D988E392E0D2D903C082ED6D
:1014600092E0DFD98091AE04882399F08FED92E06D
:1014700024DA1092AF046091B4047091B5048091A5
:10148000B6049091B7044AE0D8D988E392E0B8D97D
:10149000B3CB8DEE92E0C5D9AFCB0E94D901ACCBD6
:1014A000ECE0F3E01382128248EE53E060E070E07B
:1014B000448355836683778384E092E091838083BD
:1014C00025ED30E03587248724ED30E03787268707
:1014D00020ED30E0318B208B21ED30E0338B228BFF
:1014E00022ED30E0358B248B26ED30E0378B268BD8
:1014F000118E128E138E148EE9EAF3E0138212829B
:1015000044835583668377839183808385EC90E061
:101510009587848784EC90E09787868780EC90E0BD
:10152000918B808B81EC90E0938B828B82EC90E0AE
:10153000958B848B86EC90E0978B868B118E128E28
:10154000138E148EE6E4F4E010821182138212826C
:1015500014821582168217821086128611861386CF
:101560001486158616861786118A108A128A138A9F
:10157000148A158A168A108E178A118E128E138E6F
:10158000148E158E12A213A214A215A216A217A2CF
:1015900010AA11AA12AA13AA14AA15AA16AE17AE57
:1015A00010928A0410928B0410928C0410928D0475
:1015B000109292041092930410929804109299043D
:1015C00010929A0410929B041092A0041092A1040D
:1015D0001092A6041092A7041092A8041092A904D5
:1015E0001092AE041092AF041092B4041092B5049D
:1015F0001092B6041092B7041092BC041092BD046D
:101600001092C2041092C3041092C4041092C50434
:101610001092CA041092CB0482E08093DB041092F3
:10162000DC041092DD041092DE041092E0041092AB
:10163000DF041092E2041092E1041092E30410928D
:10164000E4041092E5041092E6041092E70410926C
:10165000E8041092E9041092EA041092EB0410924C
:10166000EC041092ED041092EE041092EF0410922C
:10167000F0041092F1041092F2041092CC04089538
:101680001F93FC0199278827BC01E894119110321F
:10169000E9F3193010F01E30C8F31B3249F01D3247
:1016A00041F4689405C012D0610F711D811D911D18
:1016B000119110531A30B8F33EF4909580957095BF
:1016C00061957F4F8F4F9F4F1F910895592F482F3E
:1016D000372F262F660F771F881F991F660F771FDA
:1016E000881F991F620F731F841F951F660F771F36
:1016F000881F991F08955058BB27AA270ED070C184
:1017000061D130F066D120F031F49F3F11F41EF426
:1017100056C10EF4E095E7FB4CC1E92F72D180F37E
:10172000BA17620773078407950718F071F49EF5DE
:101730008AC10EF4E0950B2EBA2FA02D0B01B90132
:1017400090010C01CA01A0011124FF27591B99F037
:10175000593F50F4503E68F11A16F040A22F232F43
:10176000342F4427585FF3CF469537952795A79593
:10177000F0405395C9F77EF41F16BA0B620B730B3A
:10178000840BBAF09150A1F0FF0FBB1F661F771FAB
:10179000881FC2F70EC0BA0F621F731F841F48F460
:1017A000879577956795B795F7959E3F08F0B3CFE6
:1017B0009395880F08F09927EE0F979587950895D0
:1017C000D4D008F481E008950CD00AC102D140F0D1
:1017D000F9D030F021F45F3F19F0EBC0511134C162
:1017E000EEC00FD198F39923C9F35523B1F3951B9C
:1017F000550BBB27AA2762177307840738F09F5F32
:101800005F4F220F331F441FAA1FA9F333D00E2EA0
:101810003AF0E0E830D091505040E695001CCAF70D
:1018200029D0FE2F27D0660F771F881FBB1F2617D2
:1018300037074807AB07B0E809F0BB0B802DBF01A5
:10184000FF2793585F4F2AF09E3F510568F0B1C0C3
:10185000FBC05F3FECF3983EDCF386957795679588
:10186000B795F7959F5FC9F7880F911D9695879556
:1018700097F90895E1E0660F771F881FBB1F621775
:1018800073078407BA0720F0621B730B840BBA0B33
:10189000EE1F88F7E0950895BCD088F09F5790F030
:1018A000B92F9927B751A0F0D1F0660F771F881F85
:1018B000991F1AF0BA95C9F712C0B13081F0C3D0A0
:1018C000B1E00895C0C0672F782F8827B85F39F03E
:1018D000B93FCCF3869577956795B395D9F73EF4E4
:1018E00090958095709561957F4F8F4F9F4F08958C
:1018F000E89409C097FB3EF49095809570956195AA
:101900007F4F8F4F9F4F9923A9F0F92F96E9BB275F
:101910009395F695879577956795B795F111F8CFDB
:10192000FAF4BB0F11F460FF1BC06F5F7F4F8F4F46
:101930009F4F16C0882311F096E911C0772321F03C
:101940009EE8872F762F05C0662371F096E8862FD4
:1019500070E060E02AF09A95660F771F881FDAF72B
:10196000880F9695879597F90895990F0008550F58
:10197000AA0BE0E8FEEF16161706E807F907C0F015
:1019800012161306E407F50798F0621B730B840B1D
:10199000950B39F40A2661F0232B242B252B21F4F7
:1019A00008950A2609F4A140A6958FEF811D811D97
:1019B000089597F99F6780E870E060E008959FEFD1
:1019C00080EC089500240A941616170618060906D6
:1019D000089500240A9412161306140605060895A5
:1019E000092E0394000C11F4882352F0BB0F40F42D
:1019F000BF2B11F460FF04C06F5F7F4F8F4F9F4F6D
:101A0000089557FD9058440F551F59F05F3F71F0EE
:101A10004795880F97FB991F61F09F3F79F0879555
:101A20000895121613061406551FF2CF4695F1DFDE
:101A300008C0161617061806991FF1CF869571056E
:101A4000610508940895E894BB2766277727CB01A2
:101A500097F908958ADF08F48FEF08950BD0C0CF6F
:101A6000B1DF28F0B6DF18F0952309F0A2CFA7CF99
:101A70001124EACFC6DFA0F3959FD1F3950F50E074
:101A8000551F629FF001729FBB27F00DB11D639F30
:101A9000AA27F00DB11DAA1F649F6627B00DA11DD6
:101AA000661F829F2227B00DA11D621F739FB00D7C
:101AB000A11D621F839FA00D611D221F749F3327EC
:101AC000A00D611D231F849F600D211D822F762F85
:101AD0006A2F11249F5750408AF0E1F088234AF082
:101AE000EE0FFF1FBB1F661F771F881F91505040CE
:101AF000A9F79E3F510570F05CCFA6CF5F3FECF396
:101B0000983EDCF3869577956795B795F795E795B9
:101B10009F5FC1F7FE2B880F911D9695879597F9CA
:101B2000089523DF880B990B0895DB018F939F9312
:101B300035D0BF91AF91A29F800D911DA39F900DB5
:101B4000B29F900D11240895A1E21A2EAA1BBB1B6F
:101B5000FD010DC0AA1FBB1FEE1FFF1FA217B30779
:101B6000E407F50720F0A21BB30BE40BF50B661F8F
:101B7000771F881F991F1A9469F760957095809553
:101B800090959B01AC01BD01CF010895EE0FFF1FA1
:101B9000881F8BBF0790F691E02D19940FD0A59F59
:101BA000900DB49F900DA49F800D911D1124089558
:101BB000B7FFF4CFF3DF821B930B0895A29FB00110
:101BC000B39FC001A39F700D811D1124911DB29F71
:101BD000700D811D1124911D089581E090E0F8940D
:101BE0001FC0FB01DC018D91019080190110D9F318
:101BF000990B0895FB01DC0101900D920020E1F7A3
:101C00000895FB01DC014150504048F001900D92D5
:101C10000020C9F701C01D9241505040E0F70895DF
:041C2000F894FFCF66
:101C2400000000006C01CD00FB00B8012C010A018A
:101C34001E014750524D4300474E524D43004750FA
:101C440047474100474E474741004C6174697475EA
:101C540064652020203D20000D0A004C6F6E6769EA
:101C64007475646520203D20004C6F636174696F56
:101C74006E20496E76616C696400416C7469747598
:101C840064652020203D2000206D6574657273001A
:101C9400416C74697475646520496E76616C69641D
:101CA4000053706565642020202020203D20002002
:101CB4006B6D706800537065656420496E76616C65
:101CC40069640054696D652028474D5429203A20E1
:101CD4000030003A0054696D6520496E76616C6984
:101CE400640044617465202020202020203A2000D4
:101CF4002F004461746520496E76616C69640053F9
:101D04006174656C6C69746573203D200053617463
:101D1400656C6C6974657320496E76616C696400E6
:0C1D24006E616E00696E66006F766600EE
:00000001FF
