:100000003DC100006BC1000069C1000067C1000074
:1000100065C1000063C1000061C100005FC1000054
:100020005DC100005BC1000059C1000057C1000064
:1000300055C1000053C1000051C100004FC1000074
:100040004DC100004BC1000049C1000047C1000084
:1000500045C1000043C1000041C10000A2C500002D
:100060003DC1000012C40000E7C3000037C100001A
:1000700035C1000033C1000031C100002FC10000B4
:100080002DC100002BC1000029C1000027C10000C4
:1000900025C1000023C1000021C100001FC10000D4
:1000A0001DC100001BC1000019C1000017C10000E4
:1000B00015C1000013C1000011C100000FC10000F4
:1000C0000DC100000BC1000009C100007FC300008A
:1000D00054C3000003C1000001C10000FFC00000C4
:1000E000FDC00000EB06EE06DD06E106E50625078D
:1000F000F206F606FC06000704070A070E071207B9
:10010000250718071C072007E508F608F908000965
:10011000060931093809440950095B095B095B0983
:100120005B095B095B095B095B095B095B095B09AF
:100130005B095B095B095B095B095B095B095B099F
:100140005B095B095B095B09E508F108F608F9083A
:10015000000906090D0919092509000022002500DA
:1001600028002B002E0031003400020100000501A0
:1001700008010B0100002100240027002A002D00A7
:100180003000330001010000040107010A010000F2
:1001900020002300260029002C002F00320000013F
:1001A000000003010601090105050505070508080A
:1001B0000808020202020A0A0808040404040101F1
:1001C0000101010101010303030303030303040706
:1001D00007070C0C0C0C0C0C0C0C0202020206069D
:1001E0000606060606060B0B0B0B0B0B0B0B010290
:1001F0001020200808102040102040800201020139
:1002000008040201010204081020408080402010F0
:100210000804020180040201804020100804020149
:1002200008040201010204081020408001020408B1
:100230001020408000000A0B02090C0D0E08070375
:1002400004010000000000000000000000000000A9
:10025000000000000000000000000000000000009E
:10026000121110000000000000000000000000005B
:10027000000000000000000000008F0B11241FBED2
:10028000CFEFD1E2DEBFCDBF00E00CBF13E0A0E0B6
:10029000B2E0E2EAFEE100E00BBF02C007900D927F
:1002A000AC30B107D9F724E0ACE0B3E001C01D9257
:1002B000AD3FB207E1F711E0CEE3D1E000E006C0C8
:1002C00021970109802FFE010E94050FCD33D10730
:1002D00080E00807A9F7AFD40C944F0F91CECF92CE
:1002E000DF92EF92FF920F931F93CF93DF936C01F6
:1002F0007A018B01C0E0D0E0CE15DF0581F0D80196
:100300006D918D01D601ED91FC910190F081E02D70
:10031000C6011995892B11F02196EECF7E01C701F8
:10032000DF91CF911F910F91FF90EF90DF90CF90D1
:100330000895089580E090E00895FC01538D448D68
:10034000252F30E0842F90E0821B930B541710F080
:10035000CF96089501970895FC01918D828D98178D
:1003600061F0828DDF01A80FB11D5D968C91928D99
:100370009F5F9F73928F90E008958FEF9FEF089596
:10038000FC01918D828D981731F0828DE80FF11D5F
:10039000858D90E008958FEF9FEF0895FC01918D7A
:1003A000228D892F90E0805C9F4F821B91098F7373
:1003B000992708958DE093E0F1DF21E0892B09F47E
:1003C00020E0822F08958AEA93E0E8DF21E0892B7C
:1003D00009F420E0822F0895FC01848DDF01A80F2D
:1003E000B11DA35ABF4F2C91848D90E001968F735D
:1003F0009927848FA689B7892C93A089B1898C917C
:10040000837080648C93938D848D981306C00288CA
:10041000F389E02D80818F7D80830895EF92FF9294
:100420000F931F93CF93DF93EC0181E0888F9B8D17
:100430008C8D981305C0E889F989808185FD25C0D8
:10044000F62E0B8D10E00F5F1F4F0F731127E02E5C
:100450008C8DE8120BC00FB607FCFACFE889F9893A
:10046000808185FFF5CFCE01B7DFF2CF8B8DFE0106
:10047000E80FF11DE35AFF4FF0829FB7F8940B8FFE
:10048000EA89FB89808180620AC09FB7F894EE896F
:10049000FF896083E889F989808183708064808323
:1004A0009FBF81E090E0DF91CF911F910F91FF906E
:1004B000EF900895CF93DF93EC01888D8823C1F0EE
:1004C000EA89FB89808185FD05C0A889B9898C915D
:1004D00086FD0EC00FB607FCF5CF808185FFF2CFF9
:1004E000A889B9898C9185FFEDCFCE0175DFE8CF62
:1004F000DF91CF91089580E090E0892B19F063DFC0
:10050000811120C080E090E0892B41F080E090E0F4
:10051000892B21F00E940000811117C080E090E03B
:10052000892B19F047DF811113C080E090E0892BFF
:10053000A1F080E090E0892B81F00E940000811101
:100540000AC008950E940000DDCF0E940000E6CF9F
:100550000E940000EACF0C9400000895CF93DF932F
:10056000EC018A859B85AC85BD858E839F83A8879A
:10057000B9870BD36A837B838C839D8381E08983D6
:100580008883DF91CF910895CF93DF93EC018E8123
:100590009F81A885B9858A839B83AC83BD83F5D26F
:1005A0006A877B878C879D8781E089838883DF9139
:1005B000CF9108952F923F924F925F926F927F92C8
:1005C0008F929F92AF92BF92CF92DF92EF92FF9263
:1005D0000F931F93CF93DF93D82FC92F8B010E94C6
:1005E0007F0C24E630E040E050E00E94E30E490139
:1005F0005A019B01AC0160E876E988E990E00E942D
:10060000D40E6B017C01F80191828082ED2FFC2FCA
:100610002191822F022E000C990BC0970A97C0F3EC
:100620002E3239F51F0180E8882E86E9982E88E958
:10063000A82EB12C9AE0492E512C612C712CF1017D
:10064000C1911F010C2E000CDD0BE097CA30D105C3
:1006500080F4C501B401A30192010E94E30E490197
:100660005A01DE010E94170FC60ED71EE81EF91EA2
:10067000E6CFA5E0B0E0A70196010E940D0F6F5FE5
:100680007F4F8F4F9F4F23E030E040E050E00E94CB
:10069000E30EF80122833383448355831682DF916E
:1006A000CF911F910F91FF90EF90DF90CF90BF906F
:1006B000AF909F908F907F906F905F904F903F9002
:1006C0002F900895FF920F931F93CF93DF93EC0128
:1006D000F8802DE2F21201C02196CE010E947F0C1B
:1006E0009B01AC01A4E6B0E00E940D0FFE01499110
:1006F000242F042E000C330B205331092A303105EE
:10070000A8F34E3241F52181022E000C330B205309
:1007100031092A303105F8F44AE0429F8001439FB5
:10072000100D1124012E000C220B330B600F711FD2
:10073000821F931F0281002E000C110B0053110920
:100740000A30110540F4012E000C220B330B600F10
:10075000711F821F931F2DE2F21207C090958095A2
:10076000709561957F4F8F4F9F4FDF91CF911F9174
:100770000F91FF9008950E942C0F1F920F920FB6B9
:100780000F9211240BB60F922F933F934F935F93C9
:100790006F937F938F939F93AF93BF93EF93FF9349
:1007A0008DE093E019DEFF91EF91BF91AF919F91A2
:1007B0008F917F916F915F914F913F912F910F900A
:1007C0000BBE0F900FBE0F901F9018951F920F92A7
:1007D0000FB60F9211240BB60F922F938F939F9306
:1007E000EF93FF93E0911D03F0911E038081E09150
:1007F0002303F091240382FD12C09081809126038F
:100800008F5F8F7320912703821751F0E0912603A9
:10081000F0E0E35FFC4F958F8093260301C0808159
:10082000FF91EF919F918F912F910F900BBE0F90A1
:100830000FBE0F901F9018951F920F920FB60F9238
:1008400011240BB60F922F933F934F935F936F93A7
:100850007F938F939F93AF93BF93EF93FF938AEA16
:1008600093E0BADDFF91EF91BF91AF919F918F918E
:100870007F916F915F914F913F912F910F900BBEA0
:100880000F900FBE0F901F9018951F920F920FB6EA
:100890000F9211240BB60F922F938F939F93EF9388
:1008A000FF93E091BA03F091BB038081E091C00314
:1008B000F091C10382FD12C090818091C3038F5FCC
:1008C0008F732091C403821751F0E091C303F0E0CD
:1008D000E655FC4F958F8093C30301C08081FF9143
:1008E000EF919F918F912F910F900BBE0F900FBEA4
:1008F0000F901F901895FC01A089B18982E08C931C
:10090000A485B5851C92A685B7858FEC8C93108E37
:10091000A489B58986E08C93A289B3898C91806182
:100920008C93A289B3898C9188608C93A289B389B6
:100930008C9180688C930288F389E02D80818F7D73
:1009400080830895009761F0FC0101900020E9F791
:100950003197AF01481B590BBC018AEA93E0BFCC29
:1009600080E090E00895EECF8F929F92AF92BF9279
:100970000F931F93CF93DF93CDB7DEB7A1970FB639
:10098000F894DEBF0FBECDBF19A2423008F44AE092
:100990008E010F5D1F4F842E912CA12CB12CA5012F
:1009A00094010E94E30EE62FB901CA01015011091A
:1009B000EA3014F4E05D01C0E95CD801EC93232B2C
:1009C000242B252B61F7C801BDDFA1960FB6F89443
:1009D000DEBF0FBECDBFDF91CF911F910F91BF90B2
:1009E000AF909F908F9008958F929F92AF92BF92F9
:1009F000CF92DF92EF92FF920F931F93CF93DF93EB
:100A00006B017C01142F9B01AC010E94D00E882346
:100A100019F080E093E026C046015701E894B7F84A
:100A20002FEF3FEF4FE75FE7C501B4010E94D00E03
:100A300081110CC02FEF3FEF4FE75FE7C501B40115
:100A4000FED718161CF484E093E00CC02FEF3FEFA4
:100A50004FE75FE4C701B6010E94690E18167CF4E7
:100A600088E093E0DF91CF911F910F91FF90EF907D
:100A7000DF90CF90BF90AF909F908F9063CF2FEF7C
:100A80003FEF4FE75FECC701B601D9D787FDE8CF4D
:100A900020E030E0A901C701B601D1D787FF0AC025
:100AA0006DE28AEA93E0BADCEC01F7FAF094F7F829
:100AB000F09402C0C0E0D0E000E060E070E080E0D0
:100AC0009FE3101739F020E030E040E251E4BBD75B
:100AD0000F5FF7CFA70196014ED76B017C010E94F3
:100AE0008B0D4B015C014AE03FDFC80FD91F11237A
:100AF00091F1C501B4010E94B70D9B01AC01C70182
:100B0000B60138D76B017C016EE28AEA93E086DC9D
:100B1000C80FD91F20E030E040E251E4C701B60120
:100B20000E946D0E4B015C01F6D76B01E12CF12C9C
:100B30004AE0C701B60118DFC80FD91FC701B601C7
:100B40000E94B70D9B01AC01C501B40113D76B0125
:100B50007C011150F9F6CE01DF91CF911F910F91D9
:100B6000FF90EF90DF90CF90BF90AF909F908F90CD
:100B70000895CF93DF93E6DEEC0188E392E0E2DEB6
:100B80008C0F9D1FDF91CF9108952FB7F89460913E
:100B9000F9047091FA048091FB049091FC042FBF3A
:100BA00008951F920F920FB60F9211242F933F9327
:100BB0008F939F93AF93BF938091F9049091FA0420
:100BC000A091FB04B091FC043091F80423E0230FC2
:100BD0002D3720F40196A11DB11D05C026E8230F75
:100BE0000296A11DB11D2093F8048093F9049093FF
:100BF000FA04A093FB04B093FC048091F404909158
:100C0000F504A091F604B091F7040196A11DB11D61
:100C10008093F4049093F504A093F604B093F70442
:100C2000BF91AF919F918F913F912F910F900FBEE8
:100C30000F901F901895789484B5826084BD84B518
:100C4000816084BD85B5826085BD85B5816085BDC7
:100C500080916E00816080936E001092810080917F
:100C60008100826080938100809181008160809307
:100C70008100809180008160809380008091B1002C
:100C800084608093B1008091B00081608093B00057
:100C900080919100826080939100809191008160A9
:100CA000809391008091900081608093900080916A
:100CB000A10082608093A1008091A1008160809357
:100CC000A1008091A00081608093A000809121010B
:100CD00082608093210180912101816080932101B4
:100CE0008091200181608093200180917A0084604E
:100CF00080937A0080917A00826080937A0080915C
:100D00007A00816080937A0080917A008068809375
:100D10007A001092C100E6EFF1E02491E0EBF1E0FF
:100D200084918823C1F090E0880F991FFC01EC5852
:100D3000FE4FA591B491FC01E65AFE4FC591D491A6
:100D40003FB7F8949C91822F809598239C9398812B
:100D5000892388833FBF8AEA93E0CDDD8DE093E06D
:100D6000CADD2224239490E1892E97E2992EA12CAA
:100D7000B12C24E6C22ED12CE12CF12C32E0332E02
:100D8000D1E0ECE3F2E04491E6EFF1E02491E0EB16
:100D9000F1E09491992309F4BEC4442309F455C0A9
:100DA00050E0FA013197E231F10508F04EC0882792
:100DB000EE58FF4F8F4F0C94050F809180008F7776
:100DC00007C0809180008F7D03C080918000877F65
:100DD000809380003AC084B58F7702C084B58F7D40
:100DE00084BD33C08091B0008F7703C08091B00084
:100DF0008F7D8093B00029C0809190008F7707C0CD
:100E0000809190008F7D03C080919000877F8093B8
:100E100090001BC08091A0008F7707C08091A00038
:100E20008F7D03C08091A000877F8093A0000DC0BC
:100E3000809120018F7707C0809120018F7D03C0B2
:100E400080912001877F80932001E92FF0E0EE0F51
:100E5000FF1FE257FE4FA591B4918C91282309F40E
:100E60005AC480910C03813009F052C48DE093E0A4
:100E700095DA181619060CF04BC48DE093E06CDA85
:100E8000C82F8091E4049091E504A091E604B0910C
:100E9000E7040196A11DB11D8093E4049093E5043D
:100EA000A093E604B093E704C43209F447C2E0918A
:100EB000DE04C53234F4CA3071F0CD3009F04BC2D3
:100EC0000AC0CA3241F0CC3209F045C28091CB044D
:100ED0008C278093CB04EF3008F01CC2F0E0E35382
:100EE000FB4F10828091CC04882309F411C120911A
:100EF000CD043FEB320F822F022E000C990B3630BF
:100F000010F4C79707C02156263018F48755910969
:100F100001C0C0978295807F9091CE044FEB490F1E
:100F2000292F092E000C330B463018F427533109B2
:100F300008C09156963018F42755310902C0205345
:100F40003109820F9091CB048913CEC08091F004B7
:100F50009091F104A091F204B091F3040196A11DC7
:100F6000B11D8093F0049093F104A093F204B09328
:100F7000F3048091DF04882399F08091E804909134
:100F8000E904A091EA04B091EB040196A11DB11D02
:100F90008093E8049093E904A093EA04B093EB04EF
:100FA0001091DC04112399F1113009F079C089E620
:100FB00094E0EADA87E794E0E7DA8091DF048823B7
:100FC00009F46EC087E0E7E5F4E0A9E4B4E001903D
:100FD0000D928A95E1F787E0EEE5F4E0A0E5B4E054
:100FE00001900D928A95E1F7D0DD609365047093CE
:100FF00066048093670490936804109348041093E8
:10100000470485E894E0AADA83E994E048C087E7DA
:1010100094E0BADA8091DF04882311F187E0E7E5F4
:10102000F4E0A9E4B4E001900D928A95E1F787E03D
:10103000EEE5F4E0A0E5B4E001900D928A95E1F7C9
:10104000A4DD6093650470936604809367049093B5
:101050006804D0934804D093470481EA94E07EDA90
:101060008091B9049091BA04A091BB04B091BC04E2
:101070008093B5049093B604A093B704B093B804DA
:1010800084DD6093B1047093B2048093B3049093B1
:10109000B404D093B004D093AF048DEB94E05EDA47
:1010A0000091E2041091E3040115110509F434C123
:1010B000E091E204F091E30466A177A1F80186A132
:1010C00097A1CED6892B09F027C1B801C801409657
:1010D000D0D65BDDF80160A371A382A393A325A200
:1010E00024A202A513A5E0CF8091EC049091ED0419
:1010F000A091EE04B091EF040196A11DB11D809363
:10110000EC049093ED04A093EE04B093EF0402C1BD
:101110008091DD04811140C062E172E08DEC94E0C9
:101120009FD6892B39F068E172E08DEC94E098D677
:10113000892B19F4D093DC0413C06EE172E08DECBE
:1011400094E08ED6892B39F064E272E08DEC94E065
:1011500087D6892B19F41092DC0402C03092DC048B
:101160008091E0049091E1049093E3048093E20481
:101170000091E2041091E3040115110509F4CAC0BD
:101180006DEC74E0F80186A197A16AD697FFBCC008
:10119000F80182A593A5E8CFE091DC04E23009F4E0
:1011A0008AC09091CD04992309F485C020E2E29F82
:1011B000F0011124E82B3197E932F10508F07BC0EA
:1011C0008827EC57FF4F8F4F20C68DEC94E07ADADA
:1011D00060937D0470937E0480937F0490938004D9
:1011E0006AC081E0913409F03FC03FC067E574E018
:1011F00009C081E0933509F080E080935D045BC015
:101200006EE574E08DEC94E0D5D955C081E097355A
:1012100009F080E0809364044EC08DEC94E052DAD3
:1012200060938F0470939004809391049093920440
:1012300042C08DEC94E046DA60939D0470939E0466
:1012400080939F049093A00436C08DEC94E057D314
:1012500060936F0470937004809371049093720490
:101260002AC081E091330CF480E08093DF0423C036
:101270008DEC94E044D36093B9047093BA048093E6
:10128000BB049093BC0417C08DEC94E01BDA609310
:10129000C7047093C8048093C9049093CA040BC018
:1012A0008DEC94E00FDA6093AB047093AC04809300
:1012B000AD049093AE040091E2041091E304011593
:1012C000110541F1E091E204F091E30466A177A1F8
:1012D000F80186A197A1C4D5892BE1F4F80120A5D6
:1012E00031A58091DD0490E0821793079CF02817C8
:1012F000390731F440E150E06DEC74E0C801C0D52D
:10130000F80102A513A5DBCF892B21F01092E3048D
:101310001092E20480E001C081E09091DD049F5FC3
:101320009093DD041092DE0491E0CA3209F090E05F
:101330009093CC04882309F499CD21C01092DE0447
:101340001092DD041092CB043092DC041092CC0495
:101350001092DF048BCDEE3040F481E08E0F80934D
:10136000DE04F0E0E353FB4FC0838091CC04811195
:101370007DCD8091CB04C827C093CB0477CD8091DD
:101380004704882309F455C08AE292E0ECDA10920F
:10139000480460914B0470914C0480914D049091ED
:1013A0004E04E5D328E23BE64EE65EE44CD32B0147
:1013B0003C016091490470914A0480E090E0D7D3E9
:1013C0009B01AC01C301B201D6D220914F0421117F
:1013D000905846E009DB88E392E0B4DA8BE392E0D0
:1013E000C2DA1092480460915204709153048091C3
:1013F000540490915504BBD328E23BE64EE65EE4EC
:1014000022D32B013C01609150047091510480E083
:1014100090E0ADD39B01AC01C301B201ACD22091ED
:1014200056042111905846E0DFDA88E392E08ADA28
:1014300003C089E492E09DDB8091A1048823C1F080
:101440008AE592E090DA1092A2046091A70470916C
:10145000A8048091A9049091AA048BD320E030E0E5
:1014600048EC52E4F0D242E0BFDA88E692E002C0F3
:1014700080E792E07EDB809185048823E9F081E8B3
:1014800092E071DA1092860460918B0470918C0462
:1014900080918D0490918E046CD326E53EE04DEE54
:1014A0005FE31BD420E030E048EC52E4CCD242E0D1
:1014B0009BDA8FE892E002C085E992E05ADB8091E6
:1014C0007704882309F48DC083EA92E04CDA109205
:1014D00078046091790470917A0480917B049091F2
:1014E0007C0420E432E44FE050E06DD42A3018F45C
:1014F00081EB92E038DA109278046091790470916F
:101500007A0480917B0490917C0420E432E44FE0E3
:1015100050E059D4CA01B9017727882799274AE0B2
:1015200023DA83EB92E01FDA109278046091790459
:1015300070917A0480917B0490917C04A5019401C0
:1015400042D4CA01B901A70196013DD46A3018F40A
:1015500081EB92E008DA109278046091790470913E
:101560007A0480917B0490917C04A50194012BD492
:10157000CA01B901A701960126D44AE0F5D983EB47
:1015800092E0F1D9109278046091790470917A0414
:1015900080917B0490917C04A701960114D4CA0128
:1015A000B901A70196010FD46A3018F481EB92E0DB
:1015B000DAD9109278046091790470917A0480915C
:1015C0007B0490917C04A7019601FDD3CA01B90167
:1015D000A7019601F8D34AE0C7D988E392E0B2D9CF
:1015E00003C085EB92E0C5DA80916904882309F491
:1015F00071C082EC92E0B7D910926A0460916B04DA
:1016000070916C0480916D0490916E04A501940119
:10161000DAD32A3018F481EB92E0A5D910926A044B
:1016200060916B0470916C0480916D0490916E04D4
:10163000A5019401C8D3CA01B90177278827992742
:101640004AE092D980ED92E08ED910926A046091BE
:101650006B0470916C0480916D0490916E04A701ED
:101660009601B1D3CA01B901A7019601ACD36A3082
:1016700018F481EB92E077D910926A0460916B04C0
:1016800070916C0480916D0490916E04A701960195
:101690009AD3CA01B901A701960195D34AE064D94A
:1016A00080ED92E060D910926A0460916B047091B1
:1016B0006C0480916D0490916E04A701960183D310
:1016C0006053784F80E090E04AE04ED988E392E0A2
:1016D00039D903C082ED92E04CDA8091AF048823BF
:1016E00099F08FED92E03FD91092B0046091B5046B
:1016F0007091B6048091B7049091B8044AE034D94F
:1017000088E392E01FD9B2CB8DEE92E032DAAECB15
:101710000E947B0236CBF1E0F0930C03A2CBEDE00C
:10172000F3E01382128248EE53E060E070E04483FD
:1017300055836683778384E092E09183808325EDEF
:1017400030E03587248724ED30E03787268720ED89
:1017500030E0318B208B21ED30E0338B228B22ED7A
:1017600030E0358B248B26ED30E0378B268B118EC5
:10177000128E138E148EEAEAF3E0138212824483EF
:101780005583668377839183808385EC90E095878A
:10179000848784EC90E09787868780EC90E0918B3B
:1017A000808B81EC90E0938B828B82EC90E0958B28
:1017B000848B86EC90E0978B868B118E128E138E25
:1017C000148EE7E4F4E010821182138212821482F4
:1017D0001582168217821086128611861386148649
:1017E000158616861786118A108A128A138A148A19
:1017F000158A168A108E178A118E128E138E148EE9
:10180000158E12A213A214A215A216A217A210AA34
:1018100011AA12AA13AA14AA15AA16AE17AE1092EC
:101820008B0410928C0410928D0410928E041092EE
:101830009304109294041092990410929A041092B6
:101840009B0410929C041092A1041092A204109286
:10185000A7041092A8041092A9041092AA0410924E
:10186000AF041092B0041092B5041092B604109216
:10187000B7041092B8041092BD041092BE041092E6
:10188000C3041092C4041092C5041092C6041092AE
:10189000CB041092CC0482E08093DC041092DD042F
:1018A0001092DE041092DF041092E1041092E00422
:1018B0001092E3041092E2041092E4041092E50402
:1018C0001092E6041092E7041092E8041092E904E2
:1018D0001092EA041092EB041092EC041092ED04C2
:1018E0001092EE041092EF041092F0041092F104A2
:1018F0001092F2041092F3041092CD0408951F93F5
:10190000FC0199278827BC01E89411911032E9F372
:10191000193010F01E30C8F31B3249F01D3241F46B
:10192000689405C012D0610F711D811D911D119128
:1019300010531A30B8F33EF49095809570956195E8
:101940007F4F8F4F9F4F1F910895592F482F372F4B
:10195000262F660F771F881F991F660F771F881F16
:10196000991F620F731F841F951F660F771F881FB3
:10197000991F08955058BB27AA270ED070C161D176
:1019800030F066D120F031F49F3F11F41EF456C1BF
:101990000EF4E095E7FB4CC1E92F72D180F3BA1742
:1019A000620773078407950718F071F49EF58AC1E2
:1019B0000EF4E0950B2EBA2FA02D0B01B90190016A
:1019C0000C01CA01A0011124FF27591B99F0593FAE
:1019D00050F4503E68F11A16F040A22F232F342FF6
:1019E0004427585FF3CF469537952795A795F04044
:1019F0005395C9F77EF41F16BA0B620B730B840B59
:101A0000BAF09150A1F0FF0FBB1F661F771F881F10
:101A1000C2F70EC0BA0F621F731F841F48F4879568
:101A200077956795B795F7959E3F08F0B3CF939557
:101A3000880F08F09927EE0F979587950895D4D0D1
:101A400008F481E008950CD00AC102D140F0F9D029
:101A500030F021F45F3F19F0EBC0511134C1EEC0FA
:101A60000FD198F39923C9F35523B1F3951B550B67
:101A7000BB27AA2762177307840738F09F5F5F4F61
:101A8000220F331F441FAA1FA9F333D00E2E3AF0A2
:101A9000E0E830D091505040E695001CCAF729D0BC
:101AA000FE2F27D0660F771F881FBB1F261737070B
:101AB0004807AB07B0E809F0BB0B802DBF01FF273B
:101AC00093585F4F2AF09E3F510568F0B1C0FBC0AC
:101AD0005F3FECF3983EDCF3869577956795B79575
:101AE000F7959F5FC9F7880F911D9695879597F990
:101AF0000895E1E0660F771F881FBB1F6217730709
:101B00008407BA0720F0621B730B840BBA0BEE1F1D
:101B100088F7E0950895BCD088F09F5790F0B92FD2
:101B20009927B751A0F0D1F0660F771F881F991F32
:101B30001AF0BA95C9F712C0B13081F0C3D0B1E044
:101B40000895C0C0672F782F8827B85F39F0B93F54
:101B5000CCF3869577956795B395D9F73EF4909534
:101B60008095709561957F4F8F4F9F4F0895E894B2
:101B700009C097FB3EF490958095709561957F4FD5
:101B80008F4F9F4F9923A9F0F92F96E9BB27939583
:101B9000F695879577956795B795F111F8CFFAF493
:101BA000BB0F11F460FF1BC06F5F7F4F8F4F9F4FC4
:101BB00016C0882311F096E911C0772321F09EE822
:101BC000872F762F05C0662371F096E8862F70E088
:101BD00060E02AF09A95660F771F881FDAF7880F62
:101BE0009695879597F90895990F0008550FAA0BB8
:101BF000E0E8FEEF16161706E807F907C0F0121620
:101C00001306E407F50798F0621B730B840B950B22
:101C100039F40A2661F0232B242B252B21F4089577
:101C20000A2609F4A140A6958FEF811D811D089514
:101C300097F99F6780E870E060E008959FEF80EC7F
:101C4000089500240A941616170618060906089522
:101C500000240A9412161306140605060895092E88
:101C60000394000C11F4882352F0BB0F40F4BF2BF7
:101C700011F460FF04C06F5F7F4F8F4F9F4F089537
:101C800057FD9058440F551F59F05F3F71F047952D
:101C9000880F97FB991F61F09F3F79F08795089512
:101CA000121613061406551FF2CF4695F1DF08C031
:101CB000161617061806991FF1CF8695710561054E
:101CC00008940895E894BB2766277727CB0197F9F6
:101CD00008958ADF08F48FEF08950BD0C0CFB1DFED
:101CE00028F0B6DF18F0952309F0A2CFA7CF112472
:101CF000EACFC6DFA0F3959FD1F3950F50E0551FB3
:101D0000629FF001729FBB27F00DB11D639FAA2750
:101D1000F00DB11DAA1F649F6627B00DA11D661F9F
:101D2000829F2227B00DA11D621F739FB00DA11DC0
:101D3000621F839FA00D611D221F749F3327A00D7A
:101D4000611D231F849F600D211D822F762F6A2F16
:101D500011249F5750408AF0E1F088234AF0EE0F9B
:101D6000FF1FBB1F661F771F881F91505040A9F7A8
:101D70009E3F510570F05CCFA6CF5F3FECF3983EDD
:101D8000DCF3869577956795B795F795E7959F5F0F
:101D9000C1F7FE2B880F911D9695879597F90895A9
:101DA00023DF880B990B0895DB018F939F9335D028
:101DB000BF91AF91A29F800D911DA39F900DB29FE7
:101DC000900D11240895A1E21A2EAA1BBB1BFD0140
:101DD0000DC0AA1FBB1FEE1FFF1FA217B307E4070A
:101DE000F50720F0A21BB30BE40BF50B661F771F62
:101DF000881F991F1A9469F7609570958095909542
:101E00009B01AC01BD01CF010895EE0FFF1F881F9C
:101E10008BBF0790F691E02D19940FD0A59F900DE0
:101E2000B49F900DA49F800D911D11240895B7FFBC
:101E3000F4CFF3DF821B930B0895A29FB001B39FF1
:101E4000C001A39F700D811D1124911DB29F700DC3
:101E5000811D1124911D089581E090E0F8941FC028
:101E6000FB01DC018D91019080190110D9F3990BD0
:101E70000895FB01DC0101900D920020E1F7089527
:101E8000FB01DC014150504048F001900D920020D0
:101E9000C9F701C01D9241505040E0F70895F894F1
:021EA000FFCF72
:101EA200000000000E026F019D015A02CE01AC013A
:101EB200C0014750524D4300474E524D43004750D8
:101EC20047474100474E474741004C61746974756A
:101ED20064652020203D20000D0A004C6F6E67696A
:101EE2007475646520203D20004C6F636174696FD6
:101EF2006E20496E76616C696400416C7469747518
:101F020064652020203D2000206D65746572730099
:101F1200416C74697475646520496E76616C69649C
:101F22000053706565642020202020203D20002081
:101F32006B6D706800537065656420496E76616CE4
:101F420069640054696D652028474D5429203A2060
:101F52000030003A0054696D6520496E76616C6903
:101F6200640044617465202020202020203A200053
:101F72002F004461746520496E76616C6964005378
:101F82006174656C6C69746573203D2000536174E3
:101F9200656C6C6974657320496E76616C69640066
:0C1FA2006E616E00696E66006F7666006E
:00000001FF
