:100000009BC00000C9C00000C7C00000C5C0000000
:10001000C3C00000C1C00000BFC00000BDC00000E0
:10002000BBC00000B9C00000B7C00000B5C00000F0
:10003000B3C00000B1C00000AFC00000ADC0000000
:10004000ABC00000A9C00000A7C00000A5C0000010
:10005000A3C00000A1C000009FC00000FDC40000BC
:100060009BC0000070C3000045C3000095C00000A5
:1000700093C0000091C000008FC000008DC0000040
:100080008BC0000089C0000087C0000085C0000050
:1000900083C0000081C000007FC000007DC0000060
:1000A0007BC0000079C0000077C0000075C0000070
:1000B00073C0000071C000006FC000006DC0000080
:1000C0006BC0000069C0000067C00000DDC2000016
:1000D000B2C2000061C000005FC000005DC000004F
:1000E0005BC00000AA07BB07BE07C507CB07F60722
:1000F000FD07090815082008200820082008200806
:1001000020082008200820082008200820082008AF
:10011000200820082008200820082008200820089F
:1001200020082008AA07B607BB07BE07C507CB07EC
:10013000D207DE07EA07530A11241FBECFEFD1E230
:10014000DEBFCDBF00E00CBF13E0A0E0B2E0EAE20A
:10015000FCE100E00BBF02C007900D92AC30B1078C
:10016000D9F724E0ACE0B3E001C01D92AC3FB20788
:10017000E1F710E0CCE9D0E000E006C021970109EA
:10018000802FFE010E94C90DCB39D10780E00807FE
:10019000A9F7ACD40C94130E33CFCF92DF92EF9229
:1001A000FF920F931F93CF93DF936C017A018B0122
:1001B000C0E0D0E0CE15DF0581F0D8016D918D0152
:1001C000D601ED91FC910190F081E02DC6011995C9
:1001D000892B11F02196EECF7E01C701DF91CF91DF
:1001E0001F910F91FF90EF90DF90CF9008950895A9
:1001F00080E090E00895FC01538D448D252F30E080
:10020000842F90E0821B930B541710F0CF96089523
:1002100001970895FC01918D828D981761F0828D70
:10022000DF01A80FB11D5D968C91928D9F5F9F732A
:10023000928F90E008958FEF9FEF0895FC01918DCC
:10024000828D981731F0828DE80FF11D858D90E039
:1002500008958FEF9FEF0895FC01918D228D892FD6
:1002600090E0805C9F4F821B91098F7399270895BE
:100270008CE093E0F1DF21E0892B09F420E0822F6C
:10028000089589EA93E0E8DF21E0892B09F420E072
:10029000822F0895FC01848DDF01A80FB11DA35AA0
:1002A000BF4F2C91848D90E001968F739927848F96
:1002B000A689B7892C93A089B1898C9183708064B9
:1002C0008C93938D848D981306C00288F389E02D5A
:1002D00080818F7D80830895EF92FF920F931F930B
:1002E000CF93DF93EC0181E0888F9B8D8C8D9813E9
:1002F00005C0E889F989808185FD25C0F62E0B8D22
:1003000010E00F5F1F4F0F731127E02E8C8DE81246
:100310000BC00FB607FCFACFE889F989808185FF09
:10032000F5CFCE01B7DFF2CF8B8DFE01E80FF11DC7
:10033000E35AFF4FF0829FB7F8940B8FEA89FB894D
:10034000808180620AC09FB7F894EE89FF8960833C
:10035000E889F98980818370806480839FBF81E010
:1003600090E0DF91CF911F910F91FF90EF90089552
:10037000CF93DF93EC01888D8823C1F0EA89FB8954
:10038000808185FD05C0A889B9898C9186FD0EC044
:100390000FB607FCF5CF808185FFF2CFA889B98918
:1003A0008C9185FFEDCFCE0175DFE8CFDF91CF9146
:1003B000089580E090E0892B19F063DF811120C05F
:1003C00080E090E0892B41F080E090E0892B21F0E3
:1003D0000E940000811117C080E090E0892B19F085
:1003E00047DF811113C080E090E0892BA1F080E00D
:1003F00090E0892B81F00E94000081110AC00895CD
:100400000E940000DDCF0E940000E6CF0E940000A5
:10041000EACF0C9400000895CF93DF93EC018A8516
:100420009B85AC85BD858E839F83A887B98708D3BC
:100430006A837B838C839D8381E089838883DF91BA
:10044000CF910895CF93DF93EC018E819F81A88592
:10045000B9858A839B83AC83BD83F2D26A877B870D
:100460008C879D8781E089838883DF91CF91089570
:100470002F923F924F925F926F927F928F929F92B4
:10048000AF92BF92CF92DF92EF92FF920F931F93A2
:10049000CF93DF93D82FC92F8B010E94430B24E603
:1004A00030E040E050E00E94A70D49015A019B0155
:1004B000AC0160E876E988E990E00E94980D6B0154
:1004C0007C01F80191828082ED2FFC2F2191822FF7
:1004D000022E000C990BC0970A97C0F32E3239F503
:1004E0001F0180E8882E86E9982E88E9A82EB12C75
:1004F0009AE0492E512C612C712CF101C1911F0100
:100500000C2E000CDD0BE097CA30D10580F4C5013C
:10051000B401A30192010E94A70D49015A01DE0115
:100520000E94DB0DC60ED71EE81EF91EE6CFA5E021
:10053000B0E0A70196010E94D10D6F5F7F4F8F4FF2
:100540009F4F23E030E040E050E00E94A70DF8010B
:1005500022833383448355831682DF91CF911F9189
:100560000F91FF90EF90DF90CF90BF90AF909F9052
:100570008F907F906F905F904F903F902F90089555
:10058000FF920F931F93CF93DF93EC01F8802DE23E
:10059000F21201C02196CE010E94430B9B01AC01D7
:1005A000A4E6B0E00E94D10DFE014991242F042E53
:1005B000000C330B205331092A303105A8F34E3299
:1005C00041F52181022E000C330B205331092A30D2
:1005D0003105F8F44AE0429F8001439F100D112439
:1005E000012E000C220B330B600F711F821F931F13
:1005F0000281002E000C110B005311090A30110565
:1006000040F4012E000C220B330B600F711F821F70
:10061000931F2DE2F21207C0909580957095619519
:100620007F4F8F4F9F4FDF91CF911F910F91FF9081
:1006300008950E94F00D1F920F920FB60F92112491
:100640000BB60F922F933F934F935F936F937F93CC
:100650008F939F93AF93BF93EF93FF938CE093E0BF
:1006600019DEFF91EF91BF91AF919F918F917F9193
:100670006F915F914F913F912F910F900BBE0F9013
:100680000FBE0F901F9018951F920F920FB60F92EA
:1006900011240BB60F922F938F939F93EF93FF9399
:1006A000E0911C03F0911D038081E0912203F09101
:1006B000230382FD12C09081809125038F5F8F7389
:1006C00020912603821751F0E0912503F0E0E45FCA
:1006D000FC4F958F8093250301C08081FF91EF919E
:1006E0009F918F912F910F900BBE0F900FBE0F9087
:1006F0001F9018951F920F920FB60F9211240BB6F0
:100700000F922F933F934F935F936F937F938F93AA
:100710009F93AF93BF93EF93FF9389EA93E0BADD82
:10072000FF91EF91BF91AF919F918F917F916F91C9
:100730005F914F913F912F910F900BBE0F900FBE85
:100740000F901F9018951F920F920FB60F921124C1
:100750000BB60F922F938F939F93EF93FF93E0919C
:10076000B903F091BA038081E091BF03F091C00317
:1007700082FD12C090818091C2038F5F8F732091A0
:10078000C303821751F0E091C203F0E0E755FC4F3C
:10079000958F8093C20301C08081FF91EF919F915B
:1007A0008F912F910F900BBE0F900FBE0F901F9047
:1007B0001895FC01A089B18982E08C93A485B58548
:1007C0001C92A685B7858FEC8C93108EA489B58971
:1007D00086E08C93A289B3898C9180618C93A289E5
:1007E000B3898C9188608C93A289B3898C9180683D
:1007F0008C930288F389E02D80818F7D808308951A
:10080000009761F0FC0101900020E9F73197AF01FA
:10081000481B590BBC0189EA93E0BFCC80E090E013
:100820000895CF93DF93ECDFEC018AE292E0E8DFFA
:100830008C0F9D1FDF91CF9108958F929F92AF9261
:10084000BF920F931F93CF93DF93CDB7DEB7A197DE
:100850000FB6F894DEBF0FBECDBF19A2423008F428
:100860004AE08E010F5D1F4F842E912CA12CB12CDC
:10087000A50194010E94A70DE62FB901CA010150FC
:100880001109EA3014F4E05D01C0E95CD801EC9391
:10089000232B242B252B61F7C801B2DFA1960FB6BD
:1008A000F894DEBF0FBECDBFDF91CF911F910F91A6
:1008B000BF90AF909F908F900895A2CF8F929F92FC
:1008C000AF92BF92CF92DF92EF92FF920F931F935E
:1008D000CF93DF936B017C01142F9B01AC010E942D
:1008E000940D882319F080E093E026C0460157015B
:1008F000E894B7F82FEF3FEF4FE75FE7C501B4018A
:100900000E94940D81110CC02FEF3FEF4FE75FE77E
:10091000C501B40158D718161CF484E093E00CC04C
:100920002FEF3FEF4FE75FE4C701B6010E942D0DA7
:1009300018167CF488E093E0DF91CF911F910F911E
:10094000FF90EF90DF90CF90BF90AF909F908F90EF
:1009500057CF2FEF3FEF4FE75FECC701B60133D71B
:1009600087FDE8CF20E030E0A901C701B6012BD711
:1009700087FF0AC06DE289EA93E0AEDCEC01F7FA8A
:10098000F094F7F8F09402C0C0E0D0E000E060E03E
:1009900070E080E09FE3101739F020E030E040E2A3
:1009A00051E415D70F5FF7CFA7019601A8D66B01C9
:1009B0007C0175D74B015C014AE03FDFC80FD91FAE
:1009C000112381F1C501B40196D79B01AC01C70188
:1009D000B60194D66B017C016EE289EA93E07CDC7F
:1009E000C80FD91F20E030E040E251E4C701B60152
:1009F0000E94310D4B015C0152D76B01E12CF12CAF
:100A00004AE0C701B60119DFC80FD91FC701B601F7
:100A100072D79B01AC01C501B40170D66B017C019A
:100A2000115001F7CE01DF91CF911F910F91FF90EF
:100A3000EF90DF90CF90BF90AF909F908F900895F0
:100A40002FB7F8946091F8047091F9048091FA043A
:100A50009091FB042FBF08951F920F920FB60F9233
:100A600011242F933F938F939F93AF93BF938091C4
:100A7000F8049091F904A091FA04B091FB0430912C
:100A8000F70423E0230F2D3720F40196A11DB11D9B
:100A900005C026E8230F0296A11DB11D2093F7047F
:100AA0008093F8049093F904A093FA04B093FB04A4
:100AB0008091F3049091F404A091F504B091F604B0
:100AC0000196A11DB11D8093F3049093F404A093AB
:100AD000F504B093F604BF91AF919F918F913F9130
:100AE0002F910F900FBE0F901F901895789484B59A
:100AF000826084BD84B5816084BD85B5826085BD1A
:100B000085B5816085BD80916E00816080936E00A7
:100B10001092810080918100826080938100809199
:100B2000810081608093810080918000816080934A
:100B300080008091B10084608093B1008091B0000A
:100B400081608093B00080919100826080939100D9
:100B500080919100816080939100809190008160EC
:100B6000809390008091A10082608093A100809189
:100B7000A10081608093A1008091A000816080939A
:100B8000A000809121018260809321018091210148
:100B900081608093210180912001816080932001F8
:100BA00080917A00846080937A0080917A008260DC
:100BB00080937A0080917A00816080937A0080919E
:100BC0007A00806880937A001092C10089EA93E0ED
:100BD000F0DD8CE093E0EDDD2224239480E1882E8B
:100BE00087E2982EA12CB12C94E6C92ED12CE12CB1
:100BF000F12C22E0322ED1E08CE093E02DDB1816B0
:100C000019060CF04DC48CE093E004DBC82F8091F2
:100C1000E3049091E404A091E504B091E604019608
:100C2000A11DB11D8093E3049093E404A093E50417
:100C3000B093E604C43209F446C2E091DD04C53243
:100C400034F4CA3071F0CD3009F04AC20AC0CA3259
:100C500041F0CC3209F044C28091CA048C278093C1
:100C6000CA04EF3008F01BC2F0E0E453FB4F1082DF
:100C70008091CB04882309F410C12091CC043FEB70
:100C8000320F822F022E000C990B363010F4C797CA
:100C900007C02156263018F48755910901C0C09726
:100CA000282F2295207F3091CD044FEB430F832FC7
:100CB000032E000C990B463010F4C79707C031562D
:100CC000363018F48755910901C0C097820F909172
:100CD000CA048913CEC08091EF049091F004A091D2
:100CE000F104B091F2040196A11DB11D8093EF04AF
:100CF0009093F004A093F104B093F2048091DE0489
:100D0000882399F08091E7049091E804A091E90488
:100D1000B091EA040196A11DB11D8093E704909360
:100D2000E804A093E904B093EA041091DB041123D2
:100D300099F1113009F079C088E694E083DB86E709
:100D400094E080DB8091DE04882309F46EC087E0A4
:100D5000E6E5F4E0A8E4B4E001900D928A95E1F7AD
:100D600087E0EDE5F4E0AFE4B4E001900D928A9500
:100D7000E1F766DE60936404709365048093660413
:100D800090936704109347041093460484E894E01A
:100D900043DB82E994E048C086E794E053DB80912E
:100DA000DE04882311F187E0E6E5F4E0A8E4B4E08E
:100DB00001900D928A95E1F787E0EDE5F4E0AFE46C
:100DC000B4E001900D928A95E1F73ADE60936404F5
:100DD000709365048093660490936704D0934704EE
:100DE000D093460480EA94E017DB8091B804909198
:100DF000B904A091BA04B091BB048093B404909359
:100E0000B504A093B604B093B7041ADE6093B0049F
:100E10007093B1048093B2049093B304D093AF0461
:100E2000D093AE048CEB94E0F7DA0091E1041091DA
:100E3000E2040115110509F434C1E091E104F091D7
:100E4000E20466A177A1F80186A197A1CDD6892BEE
:100E500009F027C1B801C8014096CFD6F1DDF801ED
:100E600060A371A382A393A325A224A202A513A524
:100E7000E0CF8091EB049091EC04A091ED04B0914F
:100E8000EE040196A11DB11D8093EB049093EC0438
:100E9000A093ED04B093EE0402C18091DC048111B3
:100EA00040C062E172E08CEC94E09ED6892B39F070
:100EB00068E172E08CEC94E097D6892B19F4D0931A
:100EC000DB0413C06EE172E08CEC94E08DD6892BCC
:100ED00039F064E272E08CEC94E086D6892B19F448
:100EE0001092DB0402C03092DB048091DF04909109
:100EF000E0049093E2048093E1040091E1041091F6
:100F0000E2040115110509F4CAC06CEC74E0F801A3
:100F100086A197A169D697FFBCC0F80182A593A5C9
:100F2000E8CFE091DB04E23009F48AC09091CC0470
:100F3000992309F485C020E2E29FF0011124E82BF7
:100F40003197E932F10508F07BC08827EE58FF4F52
:100F50008F4F1FC68CEC94E013DB60937C0470937E
:100F60007D0480937E0490937F046AC081E0913475
:100F700009F03FC03FC066E574E009C081E09335E9
:100F800009F080E080935C045BC06DE574E08CEC5C
:100F900094E06EDA55C081E0973509F080E08093E7
:100FA00063044EC08CEC94E0EBDA60938E04709393
:100FB0008F04809390049093910442C08CEC94E051
:100FC000DFDA60939C0470939D0480939E04909359
:100FD0009F0436C08CEC94E056D360936E047093FB
:100FE0006F0480937004909371042AC081E0913360
:100FF0000CF480E08093DE0423C08CEC94E043D3B7
:101000006093B8047093B9048093BA049093BB04BE
:1010100017C08CEC94E0B4DA6093C6047093C704F4
:101020008093C8049093C9040BC08CEC94E0A8DAB8
:101030006093AA047093AB048093AC049093AD04C6
:101040000091E1041091E2040115110541F1E091D4
:10105000E104F091E20466A177A1F80186A197A1CD
:10106000C3D5892BE1F4F80120A531A58091DC04DA
:1010700090E0821793079CF02817390731F440E17C
:1010800050E06CEC74E0C801BFD5F80102A513A5CF
:10109000DBCF892B21F01092E2041092E10480E072
:1010A00001C081E09091DC049F5F9093DC0410927A
:1010B000DD0491E0CA3209F090E09093CB048823DC
:1010C00009F49ACD21C01092DD041092DC04109234
:1010D000CA043092DB041092CB041092DE048CCD53
:1010E000EE3040F481E08E0F8093DD04F0E0E453B5
:1010F000FB4FC0838091CB0481117ECD8091CA04C7
:10110000C827C093CA0478CD8AE292E079DB809147
:101110004604882309F455C08DE292E0CEDB10929C
:10112000470460914A0470914B0480914C04909163
:101130004D04E1D328E23BE64EE65EE448D32B01C2
:101140003C01609148047091490480E090E0D3D361
:101150009B01AC01C301B201D2D220914E042111F6
:10116000905846E0ABDB8AE292E04ADB8BE392E008
:10117000A4DB109247046091510470915204809155
:10118000530490915404B7D328E23BE64EE65EE464
:101190001ED32B013C0160914F047091500480E0FC
:1011A00090E0A9D39B01AC01C301B201A8D2209168
:1011B00055042111905846E081DB8AE292E020DB61
:1011C00003C089E492E02DDB8091A0048823C1F064
:1011D0008AE592E072DB1092A1046091A6047091FE
:1011E000A7048091A8049091A90487D320E030E05F
:1011F00048EC52E4ECD242E061DB88E692E002C0C7
:1012000080E792E00EDB809184048823E9F081E896
:1012100092E053DB1092850460918A0470918B04F4
:1012200080918C0490918D0468D326E53EE04DEECC
:101230005FE317D420E030E048EC52E4C8D242E04B
:101240003DDB8FE892E002C085E992E0EADA809126
:101250007604882309F48DC083EA92E02EDB109295
:101260007704609178047091790480917A04909168
:101270007B0420E432E44FE050E069D42A3018F4D3
:1012800081EB92E01ADB1092770460917804709100
:10129000790480917A0490917B0420E432E44FE059
:1012A00050E055D4CA01B9017727882799274AE029
:1012B000C4DA83EB92E001DB10927704609178044A
:1012C0007091790480917A0490917B04A501940136
:1012D0003ED4CA01B901A701960139D46A3018F485
:1012E00081EB92E0EADA10927704609178047091D1
:1012F000790480917A0490917B04A501940127D40C
:10130000CA01B901A701960122D44AE096DA83EB1B
:1013100092E0D3DA109277046091780470917904A6
:1013200080917A0490917B04A701960110D4CA01A0
:10133000B901A70196010BD46A3018F481EB92E051
:10134000BCDA1092770460917804709179048091EE
:101350007A0490917B04A7019601F9D3CA01B901DF
:10136000A7019601F4D34AE068DA8AE292E048DA0B
:1013700003C085EB92E055DA80916804882309F474
:1013800071C082EC92E099DA1092690460916A046B
:1013900070916B0480916C0490916D04A50194018F
:1013A000D6D32A3018F481EB92E087DA10926904E0
:1013B00060916A0470916B0480916C0490916D044B
:1013C000A5019401C4D3CA01B901772788279927B9
:1013D0004AE033DA80ED92E070DA109269046091AD
:1013E0006A0470916B0480916C0490916D04A70164
:1013F0009601ADD3CA01B901A7019601A8D36A30FD
:1014000018F481EB92E059DA1092690460916A0451
:1014100070916B0480916C0490916D04A70196010A
:1014200096D3CA01B901A701960191D34AE005DA22
:1014300080ED92E042DA1092690460916A04709142
:101440006B0480916C0490916D04A70196017FD389
:101450006053784F80E090E04AE0EFD98AE292E072
:10146000CFD903C082ED92E0DCD98091AE0488230D
:1014700099F08FED92E021DA1092AF046091B404FC
:101480007091B5048091B6049091B7044AE0D5D923
:101490008AE292E0B5D9B0CB8DEE92E0C2D9ACCB66
:1014A0000E94D901A9CBECE0F3E01382128248EE4E
:1014B00053E060E070E0448355836683778384E083
:1014C00092E09183808325ED30E03587248724EDF9
:1014D00030E03787268720ED30E0318B208B21EDFF
:1014E00030E0338B228B22ED30E0358B248B26EDE0
:1014F00030E0378B268B118E128E138E148EE9EA14
:10150000F3E0138212824483558366837783918349
:10151000808385EC90E09587848784EC90E09787C2
:10152000868780EC90E0918B808B81EC90E0938BB0
:10153000828B82EC90E0958B848B86EC90E0978B8D
:10154000868B118E128E138E148EE6E4F4E01082D8
:1015500011821382128214821582168217821086DB
:101560001286118613861486158616861786118AAA
:10157000108A128A138A148A158A168A108E178A7C
:10158000118E128E138E148E158E12A213A214A217
:1015900015A216A217A210AA11AA12AA13AA14AA77
:1015A00015AA16AE17AE10928A0410928B041092F0
:1015B0008C0410928D041092920410929304109255
:1015C00098041092990410929A0410929B0410921D
:1015D000A0041092A1041092A6041092A7041092E5
:1015E000A8041092A9041092AE041092AF041092B5
:1015F000B4041092B5041092B6041092B70410927D
:10160000BC041092BD041092C2041092C304109244
:10161000C4041092C5041092CA041092CB0482E054
:101620008093DB041092DC041092DD041092DE043F
:101630001092E0041092DF041092E2041092E10490
:101640001092E3041092E4041092E5041092E60470
:101650001092E7041092E8041092E9041092EA0450
:101660001092EB041092EC041092ED041092EE0430
:101670001092EF041092F0041092F1041092F20410
:101680001092CC0408951F93FC0199278827BC0170
:10169000E89411911032E9F3193010F01E30C8F3BC
:1016A0001B3249F01D3241F4689405C012D0610F1D
:1016B000711D811D911D119110531A30B8F33EF424
:1016C00090958095709561957F4F8F4F9F4F1F919B
:1016D0000895592F482F372F262F660F771F881F01
:1016E000991F660F771F881F991F620F731F841F32
:1016F000951F660F771F881F991F08955058BB27A5
:10170000AA270ED070C161D130F066D120F031F43B
:101710009F3F11F41EF456C10EF4E095E7FB4CC157
:10172000E92F72D180F3BA17620773078407950710
:1017300018F071F49EF58AC10EF4E0950B2EBA2FC5
:10174000A02D0B01B90190010C01CA01A0011124C7
:10175000FF27591B99F0593F50F4503E68F11A1673
:10176000F040A22F232F342F4427585FF3CF469504
:1017700037952795A795F0405395C9F77EF41F1626
:10178000BA0B620B730B840BBAF09150A1F0FF0FF0
:10179000BB1F661F771F881FC2F70EC0BA0F621FDC
:1017A000731F841F48F4879577956795B795F795CC
:1017B0009E3F08F0B3CF9395880F08F09927EE0F5E
:1017C000979587950895D4D008F481E008950CD0BA
:1017D0000AC102D140F0F9D030F021F45F3F19F096
:1017E000EBC0511134C1EEC00FD198F39923C9F366
:1017F0005523B1F3951B550BBB27AA276217730717
:10180000840738F09F5F5F4F220F331F441FAA1FCA
:10181000A9F333D00E2E3AF0E0E830D0915050408A
:10182000E695001CCAF729D0FE2F27D0660F771F38
:10183000881FBB1F261737074807AB07B0E809F01A
:10184000BB0B802DBF01FF2793585F4F2AF09E3FAF
:10185000510568F0B1C0FBC05F3FECF3983EDCF38C
:10186000869577956795B795F7959F5FC9F7880F28
:10187000911D9695879597F90895E1E0660F771F7A
:10188000881FBB1F621773078407BA0720F0621B0B
:10189000730B840BBA0BEE1F88F7E0950895BCD04C
:1018A00088F09F5790F0B92F9927B751A0F0D1F049
:1018B000660F771F881F991F1AF0BA95C9F712C0D3
:1018C000B13081F0C3D0B1E00895C0C0672F782F48
:1018D0008827B85F39F0B93FCCF38695779567953F
:1018E000B395D9F73EF490958095709561957F4FAB
:1018F0008F4F9F4F0895E89409C097FB3EF4909551
:101900008095709561957F4F8F4F9F4F9923A9F0D8
:10191000F92F96E9BB279395F69587957795679567
:10192000B795F111F8CFFAF4BB0F11F460FF1BC0AB
:101930006F5F7F4F8F4F9F4F16C0882311F096E93E
:1019400011C0772321F09EE8872F762F05C06623EC
:1019500071F096E8862F70E060E02AF09A95660FA5
:10196000771F881FDAF7880F9695879597F908955E
:10197000990F0008550FAA0BE0E8FEEF16161706A0
:10198000E807F907C0F012161306E407F50798F008
:10199000621B730B840B950B39F40A2661F0232B21
:1019A000242B252B21F408950A2609F4A140A6959D
:1019B0008FEF811D811D089597F99F6780E870E082
:1019C00060E008959FEF80EC089500240A941616B5
:1019D000170618060906089500240A94121613061D
:1019E000140605060895092E0394000C11F48823AB
:1019F00052F0BB0F40F4BF2B11F460FF04C06F5FC7
:101A00007F4F8F4F9F4F089557FD9058440F551F9C
:101A100059F05F3F71F04795880F97FB991F61F070
:101A20009F3F79F087950895121613061406551FE7
:101A3000F2CF4695F1DF08C0161617061806991F53
:101A4000F1CF86957105610508940895E894BB2748
:101A500066277727CB0197F908958ADF08F48FEF7F
:101A600008950BD0C0CFB1DF28F0B6DF18F0952372
:101A700009F0A2CFA7CF1124EACFC6DFA0F3959F2C
:101A8000D1F3950F50E0551F629FF001729FBB2765
:101A9000F00DB11D639FAA27F00DB11DAA1F649F11
:101AA0006627B00DA11D661F829F2227B00DA11DC4
:101AB000621F739FB00DA11D621F839FA00D611D4A
:101AC000221F749F3327A00D611D231F849F600D6B
:101AD000211D822F762F6A2F11249F5750408AF0A4
:101AE000E1F088234AF0EE0FFF1FBB1F661F771F30
:101AF000881F91505040A9F79E3F510570F05CCF70
:101B0000A6CF5F3FECF3983EDCF38695779567951B
:101B1000B795F795E7959F5FC1F7FE2B880F911D4D
:101B20009695879597F9089523DF880B990B08956B
:101B3000DB018F939F9335D0BF91AF91A29F800D12
:101B4000911DA39F900DB29F900D11240895A1E2C5
:101B50001A2EAA1BBB1BFD010DC0AA1FBB1FEE1F27
:101B6000FF1FA217B307E407F50720F0A21BB30B72
:101B7000E40BF50B661F771F881F991F1A9469F7EE
:101B800060957095809590959B01AC01BD01CF014A
:101B90000895EE0FFF1F881F8BBF0790F691E02D71
:101BA00019940FD0A59F900DB49F900DA49F800D08
:101BB000911D11240895B7FFF4CFF3DF821B930B1F
:101BC0000895A29FB001B39FC001A39F700D811D16
:101BD0001124911DB29F700D811D1124911D089536
:101BE00081E090E0F8941FC0FB01DC018D91019031
:101BF00080190110D9F3990B0895FB01DC010190C4
:101C00000D920020E1F70895FB01DC0141505040A6
:101C100048F001900D920020C9F701C01D9241507B
:0A1C20005040E0F70895F894FFCF5C
:101C2A00000000006C01CD00FB00B8012C010A0184
:101C3A001E014750524D4300474E524D43004750F4
:101C4A0047474100474E474741000D0A004C61741F
:101C5A0069747564652020203D20004C6F6E6769A9
:101C6A007475646520203D20004C6F636174696F50
:101C7A006E20496E76616C696400416C7469747592
:101C8A0064652020203D2000206D65746572730014
:101C9A00416C74697475646520496E76616C696417
:101CAA000053706565642020202020203D200020FC
:101CBA006B6D706800537065656420496E76616C5F
:101CCA0069640054696D652028474D5429203A20DB
:101CDA000030003A0054696D6520496E76616C697E
:101CEA00640044617465202020202020203A2000CE
:101CFA002F004461746520496E76616C69640053F3
:101D0A006174656C6C69746573203D20005361745D
:101D1A00656C6C6974657320496E76616C696400E0
:0C1D2A006E616E00696E66006F766600E8
:020000023000CC
:10E000000D9489F10D94B2F10D94B2F10D94B2F129
:10E010000D94B2F10D94B2F10D94B2F10D94B2F1F0
:10E020000D94B2F10D94B2F10D94B2F10D94B2F1E0
:10E030000D94B2F10D94B2F10D94B2F10D94B2F1D0
:10E040000D94B2F10D94B2F10D94B2F10D94B2F1C0
:10E050000D94B2F10D94B2F10D94B2F10D94B2F1B0
:10E060000D94B2F10D94B2F10D94B2F10D94B2F1A0
:10E070000D94B2F10D94B2F10D94B2F10D94B2F190
:10E080000D94B2F10D94B2F10D94B2F10D94B2F180
:10E090000D94B2F10D94B2F10D94B2F10D94B2F170
:10E0A0000D94B2F10D94B2F10D94B2F10D94B2F160
:10E0B0000D94B2F10D94B2F10D94B2F10D94B2F150
:10E0C0000D94B2F10D94B2F10D94B2F10D94B2F140
:10E0D0000D94B2F10D94B2F10D94B2F10D94B2F130
:10E0E0000D94B2F141546D656761323536300041AF
:10E0F000726475696E6F206578706C6F72657220DE
:10E1000073746B3530305632206279204D4C530099
:10E11000426F6F746C6F616465723E004875683F52
:10E1200000436F6D70696C6564206F6E203D200048
:10E130004350552054797065202020203D20005FF9
:10E140005F4156525F415243485F5F3D2000415658
:10E1500052204C696243205665723D20004743437C
:10E160002056657273696F6E203D20004350552024
:10E1700049442020202020203D20004C6F7720663D
:10E18000757365202020203D20004869676820665F
:10E190007573652020203D200045787420667573D6
:10E1A00065202020203D20004C6F636B2066757336
:10E1B000652020203D20004D617220203720323024
:10E1C000313300312E362E3800342E332E350056A2
:10E1D00023202020414444522020206F7020636F70
:10E1E00064652020202020696E73747275637469E1
:10E1F0006F6E2061646472202020496E74657272B3
:10E20000757074006E6F20766563746F7200726A49
:10E210006D702020006A6D70200057686174207056
:10E220006F72743A00506F7274206E6F7420737541
:10E2300070706F72746564004D7573742062652030
:10E2400061206C6574746572002000577269747483
:10E25000696E672045450052656164696E672045B7
:10E26000450045452065727220636E743D00504F35
:10E27000525400303D5A65726F2061646472003FF1
:10E280003D43505520737461747300403D454550C3
:10E29000524F4D207465737400423D426C696E6B41
:10E2A000204C454400453D44756D70204545505215
:10E2B0004F4D00463D44756D7020464C415348001B
:10E2C000483D48656C70004C3D4C69737420492F83
:10E2D0004F20506F72747300513D51756974005234
:10E2E0003D44756D702052414D00563D73686F7707
:10E2F00020696E7465727275707420566563746FF0
:10E30000727300593D506F727420626C696E6B00BD
:10E310002A0011241FBECFEFD1E2DEBFCDBF01E046
:10E320000CBF12E0A0E0B2E0EEE1FDEF03E00BBFB6
:10E3300002C007900D92A030B107D9F712E0A0E01B
:10E34000B2E001C01D92AE30B107E1F70F9460F367
:10E350000D948DFE01E20EBF0FEF0DBF11241FBE05
:10E360000D9460F30D9400F020E030E040ED57E0B4
:10E3700005C0FA013197F1F72F5F3F4F2817390792
:10E38000C0F308959C01260F311DC901A0E0B0E043
:10E390002F5F3F4FABBFFC018791882361F08093D3
:10E3A000C6008091C00086FFFCCF8091C0008064D1
:10E3B0008093C000EACF08958DE08093C6008091DD
:10E3C000C00086FFFCCF8091C00080648093C000B5
:10E3D0008AE08093C6008091C00086FFFCCF8091C8
:10E3E000C00080648093C00008950F94C2F10F9420
:10E3F000DCF10895FC019081992359F09093C600B7
:10E400008091C00086FFFCCF8091C0008064809323
:10E41000C0003196992379F70895282F982F929567
:10E420009F70892F805D8A3308F0895F8093C600D2
:10E430008091C00086FFFCCF8091C00080648093F3
:10E44000C000822F8F70982F905D9A3308F0995FEB
:10E450009093C6008091C00086FFFCCF8091C000E1
:10E4600080648093C00008959C01FB01853691056E
:10E470001CF46330710594F0C90164E670E00F94F8
:10E480002EFE605D7F4F6093C6008091C00086FFC6
:10E49000FCCF8091C00080648093C0002B30310598
:10E4A00014F43297B4F0C90164E670E00F942EFEC4
:10E4B0006AE070E00F942EFE605D7F4F6093C600AF
:10E4C0008091C00086FFFCCF8091C0008064809363
:10E4D000C000C9016AE070E00F942EFEC0968093E0
:10E4E000C6008091C00086FFFCCF8091C000806490
:10E4F0008093C00008951F93182F8EE692EE60E07F
:10E500000F94C2F11093C6008091C00086FFFCCF2B
:10E510008091C00080648093C0000F94DCF11F9153
:10E5200008952F923F924F925F926F927F928F92B7
:10E530009F92AF92BF92CF92DF92EF92FF920F9392
:10E540001F93DF93CF93CDB7DEB762970FB6F894E2
:10E55000DEBF0FBECDBF382E622ECA01DB015C01CB
:10E560006D01772420E2222E2E010894411C511CBB
:10E570008BC081E0A81680E0B80681E0C80680E084
:10E58000D80628F0C601AA27BB270F940DF2BB2797
:10E59000AD2D9C2D8B2D0F940DF28A2D0F940DF225
:10E5A0002092C6008091C00086FFFCCF8091C00001
:10E5B00080648093C0009DE29093C6008091C0006B
:10E5C00086FFFCCF8091C00080648093C0002092C1
:10E5D000C6008091C00086FFFCCF8091C00080649F
:10E5E0008093C00019828601750188249924A1E0D6
:10E5F0003A1651F03A1620F0B2E03B1661F409C029
:10E600000BBFF701779007C0C7010F9477FE782EF4
:10E6100002C0F7017080872D0F940DF22092C60082
:10E620008091C00086FFFCCF8091C0008064809301
:10E63000C000872D8052F401EF70F0708F3520F408
:10E64000E40DF51D708204C0E40DF51D8EE280839B
:10E650000894E11CF11C011D111D0894811C911CE2
:10E6600090E18916910409F0C2CF80E190E0A0E02A
:10E67000B0E0A80EB91ECA1EDB1E198AC2010F9493
:10E68000FAF10F94DCF16A94662009F072CF629679
:10E690000FB6F894DEBF0FBECDBFCF91DF911F91B3
:10E6A0000F91FF90EF90DF90CF90BF90AF909F9031
:10E6B0008F907F906F905F904F903F902F90089534
:10E6C0002F923F924F925F926F927F928F929F9282
:10E6D000AF92BF92CF92DF92EF92FF920F931F9370
:10E6E000DF93CF93CDB7DEB7CD53D1400FB6F894BB
:10E6F000DEBF0FBECDBF01E20EBF0FEF0DBF94B75F
:10E70000F894A89514BE80916000886180936000A1
:10E7100010926000789493FF05C0E0910002F091A0
:10E7200001021995279A2F9A8091C00082608093E8
:10E73000C00080E18093C40088E18093C1000000A4
:10E74000EE24FF24870144E0A42EB12CCC24DD2448
:10E7500024C0C5010197F1F70894E11CF11C011DCB
:10E76000111D21E2E2162EE4F20620E0020720E06D
:10E77000120718F031E0C32ED12CC801B70127ECE5
:10E780003BE140E050E00F9441FE611571058105C9
:10E79000910519F485B1805885B98091C00087FD35
:10E7A00003C0C114D104A9F2A6014F5F5F4FC25E3E
:10E7B000DE4F59834883CE51D140C25EDE4F8881FF
:10E7C0009981CE51D140019711F00D9410FEC05D9A
:10E7D000DE4F19821882C053D14060E0C15DDE4F28
:10E7E0001882CF52D14088249924C35DDE4F19820C
:10E7F0001882CD52D140C05EDE4F188219821A8233
:10E800001B82C052D140CE5CDE4F188219821A8220
:10E810001B82C253D140EE24FF2487010BBFF701B6
:10E8200007911691C45CDE4F19830883CC53D14005
:10E830000D940BFEC25EDE4F28813981CE51D1404E
:10E840002130310509F52091C600C25EDE4F1982E4
:10E850001882CE51D14022C02F5F3F4F4F4F5F4FA4
:10E86000213082E138078AE7480780E0580780F0C6
:10E87000C45CDE4FE881F981CC53D140EF5FFF4F9C
:10E8800019F0EE27FF27099420E030E040E050E047
:10E890008091C00087FFE0CF2091C600C35DDE4FAE
:10E8A00048815981CD52D1404F5F5F4FC35DDE4FEC
:10E8B00059834883CD52D140213209F063C64A3092
:10E8C000510508F05FC60894811C911C53E0851621
:10E8D000910409F059C600E010E018C081E280936D
:10E8E000C6008091C00086FFFCCF8091C00080648C
:10E8F0008093C0002F5F3F4F2931310579F70F9486
:10E90000DCF10F5F1F4F0530110519F020E030E0FA
:10E91000E5CF10920A0210920B0210920C02109294
:10E920000D02109206021092070210920802109235
:10E930000902109202021092030210920402109235
:10E9400005028FEE90EE60E00F94F5F180E191EE1C
:10E9500060E00F94C2F18091C00087FFFCCF9091DE
:10E96000C600903608F09F759032B8F09093C600BC
:10E970008091C00086FFFCCF8091C00080648093AE
:10E98000C000A0E2A093C6008091C00086FFFCCF2B
:10E990008091C00080648093C000983409F4D7C18E
:10E9A0009934B8F4923409F459C1933458F490333B
:10E9B00019F1903308F4E3C59F33A1F1903409F0C5
:10E9C000DEC5BDC0953409F470C1963409F0D7C5D1
:10E9D00098C1923509F42BC2933538F49C3409F46C
:10E9E000F5C1913509F0CBC518C2963509F445C279
:10E9F000993509F0C4C567C483E792EE62E00F94CD
:10EA0000F5F110920602109207021092080210927D
:10EA1000090210920A0210920B0210920C0210923C
:10EA20000D0213C18FE792EE62E00F94F5F18FEEC5
:10EA300090EE60E00F94F5F181E291EE60E00F94CA
:10EA4000C2F187EB91EE60E00F94F5F180E391EE77
:10EA500060E00F94C2F184EE90EE60E00F94F5F167
:10EA60008FE391EE60E00F94C2F186E090E061E008
:10EA700070E00F9434F20F94DCF18DE591EE60E0DC
:10EA80000F94C2F189EC91EE60E00F94F5F18EE401
:10EA900091EE60E00F94C2F183EC91EE60E00F9490
:10EAA000F5F18CE691EE60E00F94C2F18EE10F94E7
:10EAB0000DF288E90F940DF281E00F940DF20F949E
:10EAC000DCF18BE791EE60E00F94C2F119E0E0E039
:10EAD000F0E010935700E4918E2F0F940DF20F94F5
:10EAE000DCF18AE891EE60E00F94C2F1E3E0F0E03F
:10EAF00010935700E4918E2F0F940DF20F94DCF1D8
:10EB000089E991EE60E00F94C2F1E2E0F0E0109349
:10EB10005700E4918E2F0F940DF20F94DCF188EAE8
:10EB200091EE60E00F94C2F1E1E0F0E01093570045
:10EB30001491812F0F940DF20F94DCF107CF8BE825
:10EB400092EE62E00F94F5F18BE492EE60E00F94A8
:10EB5000F5F10F94DCF100E010E019C0C8016F2D51
:10EB60000F947FFEFF2031F489E492EE60E00F9471
:10EB7000C2F10BC0F092C6008091C00086FFFCCFAE
:10EB80008091C00080648093C0000F5F1F4FC80158
:10EB900081519F41A0E0B0E0ABBFFC01F790BAE229
:10EBA000FB1621F0E2E000301E07C1F60F94DCF105
:10EBB0000F94DCF187E592EE60E00F94F5F10F948D
:10EBC000DCF1CC24DD2400E010E01EC0C8010F946D
:10EBD00077FEF82E882331F489E492EE60E00F94FA
:10EBE000C2F10BC08093C6008091C00086FFFCCFAD
:10EBF0008091C00080648093C000FE1419F00894D6
:10EC0000C11CD11C0F5F1F4FC80181519F41A0E063
:10EC1000B0E0ABBFFC01E790FAE2EF1621F022E092
:10EC20000030120799F60F94DCF10F94DCF182E6C4
:10EC300092EE60E00F94C2F1C60161E070E00F94C3
:10EC400034F20F94DCF10F94DCF110920202109276
:10EC50000302109204021092050278CE89E992EE26
:10EC600062E00F94F5F1279A2F9A16C02F9880E052
:10EC700090E0E0EDF7E03197F1F7019684369105E9
:10EC8000C1F72F9A80E090E0E0EDF7E03197F1F7DF
:10EC9000019684369105C1F78091C00087FFE6CFC9
:10ECA0008091C00087FFFCCF64C485EA92EE62E0E9
:10ECB0000F94F5F140910202509103026091040219
:10ECC0007091050281E020E10F9491F2809102029F
:10ECD00090910302A0910402B091050280509F4FD1
:10ECE000AF4FBF4F8093020290930302A0930402A0
:10ECF000B093050280509041A040B04008F426CE69
:10ED0000A4CF83EB92EE62E00F94F5F140910602FE
:10ED100050910702609108027091090280E020E1A1
:10ED20000F9491F28091060290910702A09108023F
:10ED3000B091090280509F4FAF4FBF4F80930602A2
:10ED400090930702A0930802B0930902FFCD80ECD4
:10ED500092EE62E00F94F5F183E792EE60E00F949B
:10ED6000F5F18FE792EE60E00F94F5F18BE892EE0B
:10ED700060E00F94F5F189E992EE60E00F94F5F10F
:10ED800085EA92EE60E00F94F5F183EB92EE60E09D
:10ED90000F94F5F180EC92EE60E00F94F5F187ECC2
:10EDA00092EE60E00F94F5F188ED92EE60E00F9442
:10EDB000F5F18FED92EE60E00F94F5F18AEE92EEB0
:10EDC00060E00F94F5F183E093EEBDCD87EC92EE19
:10EDD00062E00F94F5F181E40F947BF282E40F94EA
:10EDE0007BF283E40F947BF284E40F947BF285E45E
:10EDF0000F947BF286E40F947BF287E40F947BF20E
:10EE000088E40F947BF28AE40F947BF28BE40F94F6
:10EE10007BF28CE40F947BF299CD88ED92EE62E068
:10EE20000F94F5F1772473948824992409C48FED05
:10EE300092EE62E00F94F5F140910A0250910B02BC
:10EE400060910C0270910D0282E020E10F9491F22A
:10EE500080910A0290910B02A0910C02B0910D02D8
:10EE600080509F4FAF4FBF4F80930A0290930B0289
:10EE7000A0930C02B0930D0269CD8AEE92EE62E08F
:10EE80000F94F5F184EE90EE60E00F94F5F18FECC5
:10EE900091EE60E00F94F5F1662477244301CC5D98
:10EEA000DE4F19821882C452D140D401C301B695F5
:10EEB000A79597958795CA5DDE4F88839983AA8326
:10EEC000BB83C652D140CC5DDE4FA881B981C4520C
:10EED000D1401196CC5DDE4FB983A883C452D14096
:10EEE000CD0162E070E00F9434F2B0E2B093C6005E
:10EEF0008091C00086FFFCCF8091C0008064809329
:10EF0000C000EDE2E093C6008091C00086FFFCCF18
:10EF10008091C00080648093C000F0E2F093C6004E
:10EF20008091C00086FFFCCF8091C00080648093F8
:10EF3000C000CA5DDE4FE880F9800A811B81C6529D
:10EF4000D140BB27A12F902F8F2D0F940DF2CA5DBA
:10EF5000DE4F8881C652D1400F940DF2B0E2FB2EF5
:10EF6000F092C6008091C00086FFFCCF8091C00067
:10EF700080648093C0000DE30093C6008091C000C0
:10EF800086FFFCCF8091C00080648093C00010E2B7
:10EF90001093C6008091C00086FFFCCF8091C00016
:10EFA00080648093C0008BBEF3012791C65DDE4F65
:10EFB0002883CA52D140A22EBB24CC24DD2408943D
:10EFC000611C711C811C911C8BBEF3018791282E42
:10EFD0003324442455240894611C711C811C911C09
:10EFE0008BBEF3013791C55DDE4F3883CB52D140E4
:10EFF0000894611C711C811C911C8BBEF30147910C
:10F00000C45DDE4F4883CC52D140ADEFEA2EAFEF66
:10F01000FA2EAFEF0A2FAFEF1A2F6E0C7F1C801E57
:10F02000911E142D032DF22CEE24EA0CFB1C0C1D5A
:10F030001D1D0F940DF220E22093C6008091C000A8
:10F0400086FFFCCF8091C00080648093C000C65DC5
:10F05000DE4F8881CA52D1400F940DF230E23093D6
:10F06000C6008091C00086FFFCCF8091C000806404
:10F070008093C000C45DDE4F8881CC52D1400F9494
:10F080000DF240E24093C6008091C00086FFFCCFA5
:10F090008091C00080648093C000C55DDE4F888190
:10F0A000CB52D1400F940DF250E25093C6008091A4
:10F0B000C00086FFFCCF8091C00080648093C000B8
:10F0C0008FEFE8168FEFF80680E0080780E018075A
:10F0D00031F484E092EE60E00F94C2F1DFC0D80119
:10F0E000C7018070907CA070B0708050904CA040A0
:10F0F000B040D1F52FEF3FE340E050E0E222F322B1
:10F1000004231523CA5DDE4FA880B980CA80DB8046
:10F11000C652D140AE0CBF1CC01ED11EAA0CBB1CD7
:10F12000CC1CDD1C8EE092EE60E00F94C2F1BB2798
:10F13000A12F902F8F2D0F940DF28E2D0F940DF285
:10F1400030E23093C6008091C00086FFFCCF8091F2
:10F15000C00080648093C0004EE34093C60080915D
:10F16000C00086FFFCCF87C08EE09EEFA0E0B0E03D
:10F17000E822F9220A231B239CE0E91694E9F90608
:10F1800090E0090790E0190709F088C0C45DDE4FE0
:10F19000A881CC52D140EA2EFF2400E010E0102FCD
:10F1A0000F2DFE2CEE24C55DDE4FB881CB52D14031
:10F1B000EB0EF11C011D111DD601C501817090706F
:10F1C000A070B070DC0199278827E80EF91E0A1F8D
:10F1D0001B1F20EF30E040E050E0A222B322C42207
:10F1E000D52241E1AA0CBB1CCC1CDD1C4A95D1F7F1
:10F1F000EA0CFB1C0C1D1D1D81E090E0A0E0B0E0BE
:10F20000282239224A225B2235E1220C331C441C7D
:10F21000551C3A95D1F7E20CF31C041D151D57013E
:10F220006801AA0CBB1CCC1CDD1C85E192EE60E0E1
:10F230000F94C2F1C801AA27BB270F940DF2BB2778
:10F24000A12F902F8F2D0F940DF28E2D0F940DF274
:10F2500090E29093C6008091C00086FFFCCF809121
:10F26000C00080648093C000AEE3A093C60080918C
:10F27000C00086FFFCCF8091C00080648093C000F6
:10F28000C601AA27BB270F940DF2BB27AD2D9C2DDD
:10F290008B2D0F940DF28A2D0F940DF20F94DCF14B
:10F2A000CC5DDE4FE881F981C452D140F99709F471
:10F2B0004DCBF4E0EF2EF12C012D112D6E0C7F1CA7
:10F2C000801E911EF2CD83E093EE62E00F94F5F183
:10F2D0008AE192EE60E00F94C2F18091C00087FF56
:10F2E000FCCF1091C6001F751093C6008091C0001E
:10F2F00086FFFCCF8091C00080648093C0000F9493
:10F30000DCF1812F81548A3108F036C1163409F4BA
:10F3100095C0173490F4133409F44EC0143430F40B
:10F320001134F1F0123409F01DC130C0143409F465
:10F3300059C0153409F016C16BC01A3409F4C4C0A1
:10F340001B3438F4173409F48FC0183409F00AC19B
:10F35000A1C01B3409F4D2C01C3409F003C1E8C0B9
:10F360008FEF81B90DC082B1809582B980E090E0C5
:10F37000E0EDF7E03197F1F70196883C9105C1F790
:10F380008091C00087FFEFCF12B8EFC08FEF84B934
:10F390000DC085B1809585B980E090E0E0EDF7E0A3
:10F3A0003197F1F70196883C9105C1F78091C00033
:10F3B00087FFEFCF15B8D9C08FEF87B90DC088B1DF
:10F3C000809588B980E090E0E0EDF7E03197F1F7C3
:10F3D0000196883C9105C1F78091C00087FFEFCF6F
:10F3E00018B8C3C08FEF8AB90DC08BB180958BB9A7
:10F3F00080E090E0E0EDF7E03197F1F70196883C8E
:10F400009105C1F78091C00087FFEFCF1BB8ADC059
:10F410008FEF8DB90DC08EB180958EB980E090E0F0
:10F42000E0EDF7E03197F1F70196883C9105C1F7DF
:10F430008091C00087FFEFCF1EB897C08FEF80BBD1
:10F440000DC081B3809581BB80E090E0E0EDF7E0F6
:10F450003197F1F70196883C9105C1F78091C00082
:10F4600087FFEFCF11BA81C08FEF83BB0DC084B38C
:10F47000809584BB80E090E0E0EDF7E03197F1F714
:10F480000196883C9105C1F78091C00087FFEFCFBE
:10F4900014BA6BC08FEF809301010FC080910201FD
:10F4A00080958093020180E090E0E0EDF7E03197F5
:10F4B000F1F70196883C9105C1F78091C00087FF64
:10F4C000EDCF1092020151C08FEF809304010FC065
:10F4D0008091050180958093050180E090E0E0ED4A
:10F4E000F7E03197F1F70196883C9105C1F78091DB
:10F4F000C00087FFEDCF1092050137C08FEF8093DA
:10F5000007010FC08091080180958093080180E079
:10F5100090E0E0EDF7E03197F1F70196883C910536
:10F52000C1F78091C00087FFEDCF109208011DC088
:10F530008FEF80930A010FC080910B01809580931B
:10F540000B0180E090E0E0EDF7E03197F1F70196F4
:10F55000883C9105C1F78091C00087FFEDCF1092E4
:10F560000B0103C085E292EEEEC98091C00087FFD7
:10F57000FCCF8091C600EAC988E392EEE4C98CE131
:10F5800091EEE1C988249924933011F1943028F444
:10F59000913089F09230B8F408C0953061F195301F
:10F5A000F0F0963009F048C043C02B3109F042C951
:10F5B00091E06BE13FC96227C15DDE4F2883CF52E6
:10F5C000D14092E037C9B22FA0E0622793E032C960
:10F5D000822F90E0A82BB92B622794E02BC92E3004
:10F5E00009F039C3622795E0C05DDE4F19821882A9
:10F5F000C053D1401FC9E1E0F0E0EC0FFD1FC05D3A
:10F60000DE4F08811981C053D140E00FF11F2083E4
:10F610000F5F1F4FC05DDE4F19830883C053D14079
:10F6200062270A171B0709F005C9D80196E002C92D
:10F63000261709F010C303C0973009F0FBC87724E0
:10F640009981933109F412C19431C8F4963009F4C8
:10F65000D8C0973050F4923009F406C1933009F4C1
:10F660006DC0913009F059C253C0913109F477C08F
:10F67000923108F0BBC0903109F04FC2F5C098310B
:10F6800009F487C0993150F4953109F4EFC09531F0
:10F6900008F4C6C1963109F040C2C2C19A3109F4DA
:10F6A0006CC09A3108F491C09B3109F45BC09D3164
:10F6B00009F033C29D81903359F48F81882311F46E
:10F6C0009EE11CC0813011F091E018C098E916C08D
:10F6D000892F807591F0903539F4E0E0F0E089E011
:10F6E0008093570094910AC0983539F4E3E0F0E034
:10F6F00089E080935700949101C090E01A821B82A8
:10F700008D818C831D829E831F8227E030E009C299
:10F710001A8288E08B8381E48C8386E58D8382E581
:10F720008E8389E48F8383E5888780E589878FE5E9
:10F730008A8782E38B872BE030E0F3C18A818139AD
:10F7400041F0823941F0803911F48FE005C080E04A
:10F7500003C082E001C08AE01A828B8344C0772410
:10F76000739482C08D81882311F48EE12CC0813086
:10F7700011F081E028C088E926C01A82E1E0F0E0BB
:10F7800089E08093570084918B831C8224E030E0D1
:10F79000C8C18B81803589F48C81883039F4E2E0EE
:10F7A000F0E089E08093570084910DC0E0E0F0E044
:10F7B00089E080935700849106C0E3E0F0E089E09F
:10F7C0008093570084911A82DFCF8D81836C99E0FA
:10F7D000E1E0F0E0082E90935700E89507B600FCB2
:10F7E000FDCF1A821B8223E030E09BC180EC8A832C
:10F7F000CE5CDE4F188219821A821B82C253D1401E
:10F800008EC18A8190E0A0E0B0E0582F44273327D2
:10F8100022278B8190E0A0E0B0E0DC0199278827C7
:10F82000282B392B4A2B5B2B8D8190E0A0E0B0E098
:10F83000282B392B4A2B5B2B8C8190E0A0E0B0E089
:10F84000BA2FA92F982F8827282B392B4A2B5B2BCF
:10F85000220F331F441F551FC05EDE4F288339839C
:10F860004A835B83C052D1401A8259C13A81C95C34
:10F87000DE4F3883C753D140CA5CDE4F1882C6536F
:10F88000D1408B81C82EDD24CA5CDE4F488159816E
:10F89000C653D140C42AD52A933109F082C0CE5C28
:10F8A000DE4F88819981AA81BB81C253D1408050AB
:10F8B000904CA340B04030F583E0CE5CDE4FE88052
:10F8C000F9800A811B81C253D140F70100935B008C
:10F8D00080935700E89507B600FCFDCFCE5CDE4F65
:10F8E000088119812A813B81C253D14000501F4FAA
:10F8F0002F4F3F4FCE5CDE4F088319832A833B8313
:10F90000C253D140C05EDE4F488159816A817B81FC
:10F91000C052D140DE011B9631E08C9111962C91A2
:10F9200011971296C75CDE4F2883C953D140C85C3B
:10F93000DE4F1882C853D14090E0C85CDE4FE881AA
:10F94000F981C853D1408E2B9F2B0C01FA01609393
:10F950005B0030935700E89511244E5F5F4F6F4F67
:10F960007F4F0EEFE02E0FEFF02ECE0CDF1CC114F8
:10F97000D10499F685E0C05EDE4F088119812A81A5
:10F980003B81C052D140F80120935B008093570027
:10F99000E89507B600FCFDCF81E180935700E8951C
:10F9A00035C0C05EDE4F88819981AA81BB81C0527B
:10F9B000D140B695A795979587957C018601ABE0D8
:10F9C000AA2EB12CAC0EBD1E0BC0D5016D915D01F0
:10F9D000C7010F947FFE0894E11CF11C01501040F8
:10F9E0000115110591F7A60160E070E0440F551F65
:10F9F000661F771FC05EDE4FE880F9800A811B8199
:10FA0000C052D1404E0D5F1D601F711F1A82C05E33
:10FA1000DE4F488359836A837B83C052D1407FC0C5
:10FA2000FA80C55CDE4FF882CB53D140C65CDE4F16
:10FA30001882CA53D1408B81C82EDD24C65CDE4FAC
:10FA400008811981CA53D140C02AD12A1A828981DA
:10FA5000BE016D5F7F4F843121F59601C05EDE4FA0
:10FA6000E880F9800A811B81C052D1400BBFF701A9
:10FA700087919691DB018C9311969C936E5F7F4FDB
:10FA8000D801C7010296A11DB11DC05EDE4F88835B
:10FA90009983AA83BB83C052D14022503040F1F6F3
:10FAA00036C0C05EDE4F288139814A815B81C052F9
:10FAB000D1400894C108D108760100E010E0089414
:10FAC000C11CD11C0894E11CF11C011D111DE20E8A
:10FAD000F31E041F151F21BDBB27A52F942F832FB5
:10FAE00082BD2F5F3F4F4F4F5F4FF89A80B5DB01CC
:10FAF0008D93BD012E153F054007510761F7C05E8C
:10FB0000DE4F288339834A835B83C052D1409601FC
:10FB10002D5F3F4FFB01108204C080EC8A8322E0FE
:10FB200030E08BE18093C6008091C00086FFFCCF5F
:10FB30008091C00080648093C000C15DDE4FF88179
:10FB4000CF52D140F093C6008091C00086FFFCCF19
:10FB50008091C00080648093C000432F3093C60022
:10FB60008091C00086FFFCCF8091C00080648093AC
:10FB7000C000922F2093C6008091C00086FFFCCF6A
:10FB80008091C00080648093C0008EE08093C600A6
:10FB90008091C00086FFFCCF8091C000806480937C
:10FBA000C00065E1C15DDE4FE880CF52D1406E25D7
:10FBB00069276427FE01319610C090819093C6009A
:10FBC0008091C00086FFFCCF31968091C000806498
:10FBD0008093C0006927215030402115310569F715
:10FBE0006093C6008091C00086FFFCCF8091C0006A
:10FBF00080648093C00085B1805885B9772081F4F6
:10FC0000C15DDE4F0881CF52D1400F5FC15DDE4F35
:10FC10000883CF52D14090E0A0E0B0E00D941AF4F8
:10FC200027982F9880E090E020ED37E0F901319798
:10FC3000F1F7019684369105C9F700008091C00064
:10FC40008D7F8093C00081E180935700E895EE2777
:10FC5000FF270994FFCF90E00D941AF497FB092E2B
:10FC600007260AD077FD04D02ED006D000201AF443
:10FC7000709561957F4F0895F6F7909581959F4F08
:10FC80000895A1E21A2EAA1BBB1BFD010DC0AA1FDD
:10FC9000BB1FEE1FFF1FA217B307E407F50720F0F5
:10FCA000A21BB30BE40BF50B661F771F881F991F70
:10FCB0001A9469F760957095809590959B01AC01B9
:10FCC000BD01CF010895AA1BBB1B51E107C0AA1FAC
:10FCD000BB1FA617B70710F0A61BB70B881F991FED
:10FCE0005A95A9F780959095BC01CD010895F99991
:10FCF000FECF92BD81BDF89A992780B50895262F31
:10FD0000F999FECF1FBA92BD81BD20BD0FB6F89400
:0EFD1000FA9AF99A0FBE01960895F894FFCF63
:040000033000E000E9
:00000001FF
