:100000000C949F000C94D0000C94D0000C94D00061
:100010000C94D0000C94D0000C94D0000C94D00020
:100020000C94D0000C94D0000C94D0000C94D00010
:100030000C94D0000C94D0000C94D0000C94D00000
:100040000C94D0000C94D0000C94D0000C94D000F0
:100050000C94D0000C94D0000C94D0000C94440567
:100060000C94D0000C94D0000C94D0000C94D000D0
:100070000C94D0000C94D0000C94D0000C94D000C0
:100080000C94D0000C94D0000C94D0000C94D000B0
:100090000C940E050C94E4040C94D0000C94D00045
:1000A0000C94D0000C94D0000C94D0000C94D00090
:1000B0000C94D0000C94D0000C94D0000C94D00080
:1000C0000C94D0000C94D0000C94D0000C94AE048E
:1000D0000C9484040C94D0000C94D0000C94D000A8
:1000E0000C94D0000C947C090C9401090C94960992
:1000F0000C9499010C9457010C9444090C944709F1
:100100000C9475090C94F9000C943D090C9435017C
:100110000C9430090C9489090C94F5080C948E0504
:100120000C9449010C944E090C9436090C945B090B
:100130000C9468090C94E6010C9426018E05112498
:100140001FBECFEFD1E2DEBFCDBF00E00CBF13E09A
:10015000A0E0B2E0E4ECFDE100E00BBF02C00790DC
:100160000D92AC30B107D9F724E0ACE0B3E001C0A8
:100170001D92AC3FB207E1F710E0CFE9D0E000E01C
:1001800006C021970109802FFE010E94970ECE39EB
:10019000D10780E00807A9F70E947E060C94E00EC4
:1001A0000C940000FC01A089B18982E08C93A485A5
:1001B000B5851C92A685B7858FEC8C93108EA4898B
:1001C000B58986E08C93A289B3898C9180618C93E8
:1001D000A289B3898C9188608C93A289B3898C9110
:1001E00080688C930288F389E02D80818F7D8083E5
:1001F0000895AF92BF92CF92DF92EF92FF920F934A
:100200001F93CF93DF936C017B018B01040F151FAC
:10021000EB015E01AE18BF08C017D10759F0699114
:10022000D601ED91FC910190F081E02DC601199568
:10023000892B79F7C501DF91CF911F910F91FF9025
:10024000EF90DF90CF90BF90AF900895FC01538D59
:10025000448D252F30E0842F90E0821B930B5417A0
:1002600010F0CF96089501970895FC01918D828D2D
:10027000981761F0A28DAE0FBF2FB11D5D968C91C6
:10028000928D9F5F9F73928F90E008958FEF9FEF05
:100290000895FC01918D828D981731F0828DE80FC1
:1002A000F11D858D90E008958FEF9FEF0895FC017B
:1002B000918D228D892F90E0805C9F4F821B910948
:1002C0008F739927089585E193E00E94570121E0FB
:1002D000892B09F420E0822F089582EB93E00E949D
:1002E000570121E0892B09F420E0822F0895FC01B9
:1002F000A48DA80FB92FB11DA35ABF4F2C91848D87
:1003000090E001968F739927848FA689B7892C93E3
:10031000A089B1898C91837080648C93938D848D36
:10032000981306C00288F389E02D80818F7D808339
:100330000895EF92FF920F931F93CF93DF93EC01F9
:1003400081E0888F9B8D8C8D98131AC0E889F9897C
:10035000808185FF15C09FB7F894EE89FF8960837F
:10036000E889F98980818370806480839FBF81E000
:1003700090E0DF91CF911F910F91FF90EF90089542
:10038000F62E0B8D10E00F5F1F4F0F731127E02E1D
:100390008C8D8E110CC00FB607FCFACFE889F98955
:1003A000808185FFF5CFCE010E947701F1CFEB8DE3
:1003B000EC0FFD2FF11DE35AFF4FF0829FB7F89429
:1003C0000B8FEA89FB8980818062CFCFCF93DF9347
:1003D000EC01888D8823B9F0AA89BB89E889F9895D
:1003E0008C9185FD03C0808186FD0DC00FB607FC92
:1003F000F7CF8C9185FFF2CF808185FFEDCFCE01C5
:100400000E947701E9CFDF91CF91089580E090E0DD
:10041000892B49F080E090E0892B29F00E940000B0
:1004200081110E94000080E090E0892B29F00E9459
:100430006D0181110E94000080E090E0892B29F07D
:100440000E94630181110E94000080E090E0892BEE
:1004500049F080E090E0892B29F00E940000811192
:100460000C94000008952FB7F894609111037091D7
:10047000120380911303909114032FBF0895CF931B
:10048000DF93EC018A859B85AC85BD858E839F8338
:10049000A887B9870E9433026A837B838C839D83FC
:1004A00081E089838883DF91CF910895CF93DF9393
:1004B000EC018E819F81A885B9858A839B83AC835B
:1004C000BD830E9433026A877B878C879D8781E08A
:1004D00089838883DF91CF910895FC0101900020EA
:1004E000E9F73197AF01481B590BBC0182EB93E050
:1004F0000C94F9008F929F92AF92BF920F931F932B
:10050000CF93DF93CDB7DEB7A1970FB6F894DEBFD8
:100510000FBECDBF19A2423008F44AE08E010F5D34
:100520001F4F842E912CB12CA12CA50194010E9467
:10053000750EE62FB901CA01EA30F4F4E05DD80186
:10054000EE938D01232B242B252B79F790E080E06F
:10055000109719F0CD010E946D02A1960FB6F89484
:10056000DEBF0FBECDBFDF91CF911F910F91BF9026
:10057000AF909F908F900895E95CE1CFCF93DF9388
:100580000E946D02EC0182E192E00E946D028C0FEC
:100590009D1FDF91CF9108950C946D024F925F9251
:1005A0006F927F928F929F92AF92BF92CF92DF9283
:1005B000EF92FF920F931F93CF936B017C01742EE8
:1005C000AC019B010E94600E882399F085E192E0C6
:1005D000CF911F910F91FF90EF90DF90CF90BF9040
:1005E000AF909F908F907F906F905F904F900C9402
:1005F0006D0246015701E894B7F82FEF3FEF4FE740
:100600005FE7C501B4010E94600E81110DC02FEF9C
:100610003FEF4FE75FE7C501B4010E94960C181643
:100620001CF489E192E0D4CF2FEF3FEF4FE75FE476
:10063000C701B6010E94EE0D18161CF48DE192E080
:10064000C7CF2FEF3FEF4FE75FECC701B6010E9426
:10065000960C87FDF3CF20E030E0A901C701B60179
:100660000E94960C10E000E087FF0AC06DE282EB6A
:1006700093E00E9499018C01F7FAF094F7F8F09456
:10068000C0E060E070E080E09FE37C1641F020E095
:1006900030E040E251E40E949B0CCF5FF6CFA7010F
:1006A00096010E942A0C2B013C010E940D0D4B016A
:1006B0005C014AE00E947A027C01E00EF11ECC232C
:1006C000C1F1C501B4010E943C0D9B01AC01C30105
:1006D000B2010E94290C4B015C016EE282EB93E0B7
:1006E0000E949901E80EF91EC15018F120E030E097
:1006F00040E251E4C501B4010E94F30D2B013C011D
:100700000E940D0D4B01B12CA12C4AE0C501B40192
:100710000E947A02E80EF91EC501B4010E943C0D48
:100720009B01AC01C301B2010E94290C4B015C0189
:10073000DBCFC701CF911F910F91FF90EF90DF901A
:10074000CF90BF90AF909F908F907F906F905F9071
:100750004F9008952F923F924F925F926F927F92A7
:100760008F929F92AF92BF92CF92DF92EF92FF92C1
:100770000F931F93CF93DF93D82FC92F8B010E9424
:10078000ED0B24E630E040E050E00E94750E490198
:100790009B01AC0160E876E988E990E00E94650E73
:1007A0006B017C01F80191828082ED2FFC2F219159
:1007B000822F022E000C990BC0970A97C0F32E329D
:1007C00039F51F0180E8882E86E9982E88E9A82E41
:1007D000B12C9AE0492E512C612C712CF101C19160
:1007E0001F010C2E000CDD0BE097CA30D10580F400
:1007F000C501B401A30192010E94750E49015A017D
:10080000DE010E94AA0EC60ED71EE81EF91EE6CF14
:10081000A5E0B0E0A70196010E949F0E6F5F7F4F99
:100820008F4F9F4F23E030E040E050E00E94750E74
:10083000F80122833383448355831682DF91CF915D
:100840001F910F91FF90EF90DF90CF90BF90AF90EE
:100850009F908F907F906F905F904F903F902F90E0
:1008600008951F93CF93DF93EC0118811D3209F493
:100870002196CE010E94ED0B9B01AC01A4E6B0E0F5
:100880000E949F0EAB01BC01FE012991822F022E16
:10089000000C990BC0970A97B8F32E3231F581817D
:1008A000082E000C990BC0978A309105F0F4AAE04D
:1008B000A89F9001A99F300D1124C901330FAA0BE5
:1008C000BB0B480F591F6A1F7B1F8281082E000C2B
:1008D000990BC0978A30910540F4092E000CAA0BA1
:1008E000BB0B480F591F6A1F7B1F1D3239F47095CF
:1008F0006095509541955F4F6F4F7F4FCB01BA0187
:10090000DF91CF911F9108951F920F920FB60F9212
:1009100011240BB60F922F933F934F935F936F93D6
:100920007F938F939F93AF93BF93EF93FF9385E153
:1009300093E00E947701FF91EF91BF91AF919F915A
:100940008F917F916F915F914F913F912F910F9078
:100950000BBE0F900FBE0F901F9018951F920F9215
:100960000FB60F9211240BB60F922F938F939F9374
:10097000EF93FF93E0912503F09126038081E091AE
:100980002B03F0912C0382FD1DC0908180912E03DA
:100990008F5F8F7320912F03821741F0E0912E0318
:1009A000F0E0EB5EFC4F958F80932E03FF91EF916B
:1009B0009F918F912F910F900BBE0F900FBE0F90B4
:1009C0001F9018958081F2CF1F920F920FB60F9251
:1009D00011240BB60F922F933F934F935F936F9316
:1009E0007F938F939F93AF93BF93EF93FF9382EB8C
:1009F00093E00E947701FF91EF91BF91AF919F919A
:100A00008F917F916F915F914F913F912F910F90B7
:100A10000BBE0F900FBE0F901F9018951F920F9254
:100A20000FB60F9211240BB60F922F938F939F93B3
:100A3000EF93FF93E091C203F091C3038081E091B3
:100A4000C803F091C90382FD1DC090818091CB0342
:100A50008F5F8F732091CC03821741F0E091CB031D
:100A6000F0E0EE54FC4F958F8093CB03FF91EF9114
:100A70009F918F912F910F900BBE0F900FBE0F90F3
:100A80001F9018958081F2CF1F920F920FB60F9290
:100A900011242F933F938F939F93AF93BF93809194
:100AA000110390911203A0911303B091140330919C
:100AB000100323E0230F2D3758F50196A11DB11D1A
:100AC000209310038093110390931203A0931303B8
:100AD000B093140380910C0390910D03A0910E0329
:100AE000B0910F030196A11DB11D80930C0390934B
:100AF0000D03A0930E03B0930F03BF91AF919F918D
:100B00008F913F912F910F900FBE0F901F901895CE
:100B100026E8230F0296A11DB11DD2CFE5E1F3E037
:100B20001382128248EE53E060E070E04483558304
:100B30006683778384E092E09183808325ED30E0C3
:100B40003587248724ED30E03787268720ED30E095
:100B5000318B208B21ED30E0338B228B22ED30E086
:100B6000358B248B26ED30E0378B268B118E128E41
:100B7000138E148EE2EBF3E01382128244835583CA
:100B800066837783918380838DEC90E0958784875B
:100B90008CEC90E09787868788EC90E0918B808B37
:100BA00089EC90E0938B828B8AEC90E0958B848B20
:100BB0008EEC90E0978B868B118E128E138E148E96
:100BC000EFE4F4E010821182138212821482158203
:100BD0001682178210861286118613861486158651
:100BE00016861786118A108A128A138A148A158A21
:100BF000168A108E178A118E128E138E148E158EF1
:100C000012A213A214A215A216A217A210AA11AA28
:100C100012AA13AA14AA15AA16AE17AE109293041C
:100C200010929404109295041092960410929B04D2
:100C300010929C041092A1041092A2041092A3049A
:100C40001092A4041092A9041092AA041092AF0466
:100C50001092B0041092B1041092B2041092B70432
:100C60001092B8041092BD041092BE041092BF04FA
:100C70001092C0041092C5041092C6041092CB04C6
:100C80001092CC041092CD041092CE041092D30492
:100C90001092D40482E08093E4041092E504109250
:100CA000E6041092E7041092E9041092E80410920E
:100CB000EB041092EA041092EC041092ED041092EE
:100CC000EE041092EF041092F0041092F1041092CE
:100CD000F2041092F3041092F4041092F5041092AE
:100CE000F6041092F7041092F8041092F90410928E
:100CF000FA041092FB041092D5040895789484B5F8
:100D0000826084BD84B5816084BD85B5826085BD07
:100D100085B5816085BD80916E00816080936E0095
:100D20001092810080918100826080938100809187
:100D30008100816080938100809180008160809338
:100D400080008091B10084608093B1008091B000F8
:100D500081608093B00080919100826080939100C7
:100D600080919100816080939100809190008160DA
:100D7000809390008091A10082608093A100809177
:100D8000A10081608093A1008091A0008160809388
:100D9000A000809121018260809321018091210136
:100DA00081608093210180912001816080932001E6
:100DB00080917A00846080937A0080917A008260CA
:100DC00080937A0080917A00816080937A0080918C
:100DD0007A00806880937A001092C10082EB93E0E1
:100DE0000E94D20085E193E00E94D2002224239445
:100DF00080E1882E87E2982EA12CB12C94E6C92E92
:100E0000D12CE12CF12C22E0322ED1E085E193E0CF
:100E10000E945701181619060CF0D0C285E193E024
:100E20000E943501C82F8091EC049091ED04A091AF
:100E3000EE04B091EF040196A11DB11D8093EC0466
:100E40009093ED04A093EE04B093EF04C43209F440
:100E50007AC2E091E604C5320CF0BDC0CA3019F088
:100E6000CD3009F07DC2EF3008F032C1F0E0EB5236
:100E7000FB4F10827090D404772009F42BC120918D
:100E8000D504822F022E000C990B3FEB320F363027
:100E900008F0ADC0C7978295807F9091D604292F26
:100EA000092E000C330B4FEB490F463008F0A7C05A
:100EB00027533109820F9091D3048913F6C0809192
:100EC000F8049091F904A091FA04B091FB04019602
:100ED000A11DB11D8093F8049093F904A093FA0426
:100EE000B093FB048091E704882399F08091F0048B
:100EF0009091F104A091F204B091F3040196A11D28
:100F0000B11D8093F0049093F104A093F204B09388
:100F1000F3041091E404112309F47AC01130A1F50F
:100F200081E794E00E9456028FE794E00E94560207
:100F30008091E704882341F187E0EFE5F4E0A1E543
:100F4000B4E001900D928A95E1F787E0E6E6F4E0DF
:100F5000A8E5B4E001900D928A95E1F70E94330272
:100F600060936D0470936E0480936F04909370048B
:100F70001093500410934F048DE894E00E943F02B8
:100F80008BE994E00E943F020091EA041091EB0487
:100F90000115110509F41CC2E091EA04F091EB047B
:100FA00066A177A1F80186A197A10E94C10E892BA5
:100FB00009F00EC2B801C80140960E94CA0E0E94F4
:100FC0003302F80160A371A382A393A325A224A2F4
:100FD00002A513A5DDCFCA3209F445CFCC3209F002
:100FE000BFC18091D3048C278093D3043CCF21567A
:100FF000263018F4875591094ECFC0974CCF9156A3
:10100000963018F42755310955CF2053310952CF66
:101010008FE794E00E9456028091E704882321F133
:1010200087E0EFE5F4E0A1E5B4E001900D928A9548
:10103000E1F787E0E6E6F4E0A8E5B4E001900D9280
:101040008A95E1F70E94330260936D0470936E04F9
:1010500080936F0490937004D0935004D0934F0406
:1010600089EA94E00E943F028091C1049091C204F9
:10107000A091C304B091C4048093BD049093BE04B6
:10108000A093BF04B093C0040E9433026093B904DC
:101090007093BA048093BB049093BC04D093B804BB
:1010A000D093B70485EC94E06DCF8091F4049091D7
:1010B000F504A091F604B091F7040196A11DB11DAD
:1010C0008093F4049093F504A093F604B093F7048E
:1010D000712C7EC18091E504811144C061E272E00F
:1010E00085ED94E00E94C10E892B41F067E272E029
:1010F00085ED94E00E94C10E892BF1F4D093E404B5
:101100008091E8049091E9049093EB048093EA04C1
:101110000091EA041091EB0401151105C9F265ED87
:1011200074E0F80186A197A10E94C10E97FF49C102
:10113000F80182A593A5E8CF6DE272E085ED94E019
:101140000E94C10E892B41F063E372E085ED94E0CB
:101150000E94C10E892B19F41092E404D1CF309271
:10116000E404CECFE091E404E23009F44AC0909167
:10117000D504992309F445C020E2E29FF00111242F
:10118000E82B3197E932F10508F03BC08827E4539A
:10119000F74F8F4F0C94970EF50836093D09440917
:1011A000470975097C09890996090109010901099D
:1011B00001090109010901090109010901090109DF
:1011C00001090109010901090109010901090109CF
:1011D0000109010901090109F508300936093D092C
:1011E000440947094E095B09680985ED94E00E94AE
:1011F00031046093850470938604809387049093F0
:1012000088040091EA041091EB047090E504011544
:10121000110509F45DCFE091EA04F091EB0466A1B9
:1012200077A1F80186A197A10E94C10E892B09F030
:101230004FCFF80120A531A5872D90E082179307A5
:101240000CF446CF2817390739F440E150E065ED3A
:1012500074E0C8010E94D10EF80102A513A5D5CFF4
:1012600081E0913409F445C080E043C06FE574E04B
:1012700085ED94E00E94AA03C4CF81E0933509F084
:1012800080E080936504BDCF66E674E0F1CF81E035
:10129000973509F080E080936C04B3CF85ED94E03E
:1012A0000E9431046093970470939804809399048A
:1012B00090939A04A6CF85ED94E00E943104609348
:1012C000A5047093A6048093A7049093A80499CFD3
:1012D00085ED94E00E94ED0B6093770470937804A1
:1012E0008093790490937A048CCF81E091330CF44D
:1012F000BBCF8093E70485CF85ED94E00E94ED0B92
:101300006093C1047093C2048093C3049093C40497
:1013100078CF85ED94E00E9431046093CF04709300
:10132000D0048093D1049093D2046BCF85ED94E0E8
:101330000E9431046093B3047093B4048093B504A5
:101340009093B6045ECF1092E6041092E5041092DA
:10135000D3043092E4041092D4041092E70456CDE2
:10136000EE3040F481E08E0F8093E604F0E0EB5223
:10137000FB4FC0838091D404811148CD8091D30468
:10138000C827C093D30442CD85E592E00E94BE02F7
:1013900095C08CE792E0B2C081EA92E0D7C081ECC0
:1013A00092E00E94BE0279C18EED92E00E94BE02E0
:1013B000F9C189EF92E00E94BE0228CD0E94060288
:1013C00025CD892B09F484CE1092EB041092EA0407
:1013D0008091E5048F5F8093E5041092E60481E03C
:1013E000CA3209F080E08093D404772009F40ECD4E
:1013F00080914F04882341F289E392E00E94CC025D
:1014000010925004609153047091540480915504DB
:10141000909156040E943C0D28E23BE64EE65EE4C5
:101420000E949B0C2B013C0160915104709152046D
:1014300090E080E00E943C0D9B01AC01C301B20131
:101440000E942A0C209157042111905846E00E94D6
:10145000CE0282E192E00E946D0287E492E00E9457
:10146000CC021092500460915A0470915B048091F8
:101470005C0490915D040E943C0D28E23BE64EE640
:101480005EE40E949B0C2B013C016091580470911A
:10149000590490E080E00E943C0D9B01AC01C30127
:1014A000B2010E942A0C20915E042111905846E05E
:1014B0000E94CE0282E192E00E946D028091A90416
:1014C000882309F466CF86E692E00E94CC0210924F
:1014D000AA046091AF047091B0048091B10490911E
:1014E000B2040E943E0D20E030E048EC52E40E943D
:1014F0009B0C42E00E94CE0284E792E00E94BE0272
:1015000080918D04882309F447CF8DE892E00E94F2
:10151000CC0210928E046091930470919404809197
:101520009504909196040E943E0D26E53EE04DEE16
:101530005FE30E94F30D20E030E048EC52E40E94AB
:101540009B0C42E00E94CE028BE992E00E94BE0218
:1015500080917F04882309F422CF8FEA92E00E94D1
:10156000CC02109280046091810470918204809179
:1015700083049091840420E432E44FE050E00E9420
:10158000750E2A3020F48DEB92E00E94CC0210926E
:101590008004609181047091820480918304909111
:1015A000840420E432E44FE050E00E94750ECA014A
:1015B000B9017727882799274AE00E947A028FEBA2
:1015C00092E00E94CC02109280046091810470919C
:1015D00082048091830490918404A50194010E9467
:1015E000750ECA01B901A70196010E94750E6A30F5
:1015F00020F48DEB92E00E94CC0210928004609166
:101600008104709182048091830490918404A501E7
:1016100094010E94750ECA01B901A70196010E94AA
:10162000750E4AE00E947A028FEB92E00E94CC0293
:1016300010928004609181047091820480918304EF
:1016400090918404A70196010E94750ECA01B90108
:10165000A70196010E94750E6A3020F48DEB92E08E
:101660000E94CC02109280046091810470918204E7
:101670008091830490918404A70196010E94750EC5
:10168000CA01B901A70196010E94750E4AE00E94A5
:101690007A0282E192E00E946D02809171048823B7
:1016A00009F482CE8EEC92E00E94CC021092720479
:1016B0006091730470917404809175049091760424
:1016C000A50194010E94750E2A3020F48DEB92E062
:1016D0000E94CC02109272046091730470917404A1
:1016E0008091750490917604A50194010E94750E75
:1016F000CA01B9017727882799274AE00E947A0210
:101700008CED92E00E94CC021092720460917304FE
:10171000709174048091750490917604A7019601EC
:101720000E94750ECA01B901A70196010E94750EAB
:101730006A3020F48DEB92E00E94CC021092720489
:101740006091730470917404809175049091760493
:10175000A70196010E94750ECA01B901A701960161
:101760000E94750E4AE00E947A028CED92E00E947F
:10177000CC02109272046091730470917404809191
:10178000750490917604A70196010E94750E60532E
:10179000784F90E080E04AE00E947A0282E192E095
:1017A0000E946D028091B704882309F402CE8BEE6B
:1017B00092E00E94CC021092B8046091BD04709136
:1017C000BE048091BF049091C0044AE00E947A0256
:1017D00082E192E00E946D0219CB1F93FC019927D0
:1017E0008827BC01E89411911032E9F3193010F008
:1017F0001E30C8F31B3251F01D3249F4689406C004
:101800000E94140C610F711D811D911D11911053C7
:101810001A30B0F33EF490958095709561957F4FA6
:101820008F4F9F4F1F910895592F482F372F262FE5
:10183000660F771F881F991F660F771F881F991FD4
:10184000620F731F841F951F660F771F881F991FD4
:1018500008955058BB27AA270E94410C0C94B40D40
:101860000E94A60D38F00E94AD0D20F039F49F3F84
:1018700019F426F40C94A30D0EF4E095E7FB0C94F8
:101880009D0DE92F0E94C50D58F3BA176207730723
:101890008407950720F079F4A6F50C94E70D0EF473
:1018A000E0950B2EBA2FA02D0B01B90190010C0170
:1018B000CA01A0011124FF27591B99F0593F50F488
:1018C000503E68F11A16F040A22F232F342F4427E0
:1018D000585FF3CF469537952795A795F0405395D8
:1018E000C9F77EF41F16BA0B620B730B840BBAF0A8
:1018F0009150A1F0FF0FBB1F661F771F881FC2F713
:101900000EC0BA0F621F731F841F48F48795779526
:101910006795B795F7959E3F08F0B0CF9395880FE0
:1019200008F09927EE0F9795879508950E94790DF5
:1019300008F481E008950E94AF0C0C94B40D0E944D
:10194000AD0D58F00E94A60D40F029F45F3F29F03C
:101950000C949D0D51110C94E80D0C94A30D0E9454
:10196000C50D68F39923B1F3552391F3951B550BDE
:10197000BB27AA2762177307840738F09F5F5F4F62
:10198000220F331F441FAA1FA9F335D00E2E3AF0A1
:10199000E0E832D091505040E695001CCAF72BD0B9
:1019A000FE2F29D0660F771F881FBB1F261737070A
:1019B0004807AB07B0E809F0BB0B802DBF01FF273C
:1019C00093585F4F3AF09E3F510578F00C949D0D6F
:1019D0000C94E80D5F3FE4F3983ED4F38695779539
:1019E0006795B795F7959F5FC9F7880F911D9695F5
:1019F000879597F90895E1E0660F771F881FBB1F51
:101A0000621773078407BA0720F0621B730B840BFD
:101A1000BA0BEE1F88F7E09508950E94CD0D88F06F
:101A20009F5798F0B92F9927B751B0F0E1F0660FA2
:101A3000771F881F991F1AF0BA95C9F714C0B130E3
:101A400091F00E94E70DB1E008950C94E70D672F27
:101A5000782F8827B85F39F0B93FCCF38695779512
:101A60006795B395D9F73EF49095809570956195FB
:101A70007F4F8F4F9F4F0895E89409C097FB3EF426
:101A800090958095709561957F4F8F4F9F4F9923CB
:101A9000A9F0F92F96E9BB279395F6958795779549
:101AA0006795B795F111F8CFFAF4BB0F11F460FF09
:101AB0001BC06F5F7F4F8F4F9F4F16C0882311F061
:101AC00096E911C0772321F09EE8872F762F05C075
:101AD000662371F096E8862F70E060E02AF09A9510
:101AE000660F771F881FDAF7880F9695879597F905
:101AF0000895990F0008550FAA0BE0E8FEEF16169F
:101B00001706E807F907C0F012161306E407F507F1
:101B100098F0621B730B840B950B39F40A2661F065
:101B2000232B242B252B21F408950A2609F4A14008
:101B3000A6958FEF811D811D089597F99F6780E815
:101B400070E060E008959FEF80EC089500240A940F
:101B50001616170618060906089500240A94121688
:101B60001306140605060895092E0394000C11F4BB
:101B7000882352F0BB0F40F4BF2B11F460FF04C068
:101B80006F5F7F4F8F4F9F4F089557FD9058440FC1
:101B9000551F59F05F3F71F04795880F97FB991FCC
:101BA00061F09F3F79F08795089512161306140689
:101BB000551FF2CF4695F1DF08C016161706180616
:101BC000991FF1CF86957105610508940895E894F1
:101BD000BB2766277727CB0197F908950E94790DD7
:101BE00008F48FEF08950E94060E0C94B40D0E9425
:101BF000A60D38F00E94AD0D20F0952311F00C9445
:101C00009D0D0C94A30D11240C94E80D0E94C50D9C
:101C100070F3959FC1F3950F50E0551F629FF0013F
:101C2000729FBB27F00DB11D639FAA27F00DB11D58
:101C3000AA1F649F6627B00DA11D661F829F2227E1
:101C4000B00DA11D621F739FB00DA11D621F839F68
:101C5000A00D611D221F749F3327A00D611D231F3E
:101C6000849F600D211D822F762F6A2F11249F578C
:101C700050409AF0F1F088234AF0EE0FFF1FBB1F8F
:101C8000661F771F881F91505040A9F79E3F51054E
:101C900080F00C949D0D0C94E80D5F3FE4F3983EAA
:101CA000D4F3869577956795B795F795E7959F5FF8
:101CB000C1F7FE2B880F911D9695879597F908958A
:101CC0000E94790D880B990B0895DB018F939F93E8
:101CD0000E949F0EBF91AF91A29F800D911DA39F67
:101CE000900DB29F900D11240895A1E21A2EAA1B07
:101CF000BB1BFD010DC0AA1FBB1FEE1FFF1FA217BC
:101D0000B307E407F50720F0A21BB30BE40BF50BB8
:101D1000661F771F881F991F1A9469F76095709541
:101D2000809590959B01AC01BD01CF010895EE0F08
:101D3000FF1F881F8BBF0790F691E02D19940E941A
:101D4000B20EA59F900DB49F900DA49F800D911D84
:101D500011240895B7FF0C949F0E0E949F0E821BC2
:101D6000930B0895A29FB001B39FC001A39F700D74
:101D7000811D1124911DB29F700D811D1124911D93
:101D80000895FB01DC018D91019080190110D9F3B8
:101D9000990B0895FB01DC0101900D920020E1F701
:101DA0000895FB01DC014150504048F001900D9234
:101DB0000020C9F701C01D9241505040E0F708953E
:041DC000F894FFCFC5
:101DC400000000009901F9002601E60157013501E0
:101DD40049010D0A006E616E00696E66006F7666D9
:101DE400004750524D4300474E524D430047504721
:101DF400474100474E474741004C6174697475641C
:101E0400652020203D20004C6F6E67697475646501
:101E140020203D20004C6F636174696F6E20496E11
:101E240076616C696400416C746974756465202022
:101E3400203D2000206D657465727300416C7469E7
:101E44007475646520496E76616C696400537065CD
:101E540065642020202020203D2000206B6D7068C8
:101E640000537065656420496E76616C6964005442
:101E7400696D652028474D5429203A200030003AE6
:101E84000054696D6520496E76616C696400446133
:101E94007465202020202020203A20002F00446157
:101EA400746520496E76616C696400536174656C75
:101EB4006C69746573203D2000536174656C6C69B2
:0C1EC40074657320496E76616C696400DF
:00000001FF
